{
  "_format": "hh-sol-artifact-1",
  "contractName": "MedSynapseConsent",
  "sourceName": "contracts/MedSynapseConsent.sol",
  "abi": [
    {
      "inputs": [],
      "stateMutability": "nonpayable",
      "type": "constructor"
    },
    {
      "anonymous": false,
      "inputs": [
        {
          "indexed": true,
          "internalType": "bytes32",
          "name": "consentId",
          "type": "bytes32"
        },
        {
          "indexed": true,
          "internalType": "address",
          "name": "contributor",
          "type": "address"
        },
        {
          "indexed": false,
          "internalType": "string",
          "name": "dataHash",
          "type": "string"
        }
      ],
      "name": "ConsentCreated",
      "type": "event"
    },
    {
      "anonymous": false,
      "inputs": [
        {
          "indexed": true,
          "internalType": "bytes32",
          "name": "consentId",
          "type": "bytes32"
        },
        {
          "indexed": true,
          "internalType": "address",
          "name": "contributor",
          "type": "address"
        }
      ],
      "name": "ConsentRevoked",
      "type": "event"
    },
    {
      "anonymous": false,
      "inputs": [
        {
          "indexed": true,
          "internalType": "address",
          "name": "previousOwner",
          "type": "address"
        },
        {
          "indexed": true,
          "internalType": "address",
          "name": "newOwner",
          "type": "address"
        }
      ],
      "name": "OwnershipTransferred",
      "type": "event"
    },
    {
      "anonymous": false,
      "inputs": [
        {
          "indexed": true,
          "internalType": "bytes32",
          "name": "consentId",
          "type": "bytes32"
        },
        {
          "indexed": true,
          "internalType": "address",
          "name": "researcher",
          "type": "address"
        }
      ],
      "name": "ResearchApproved",
      "type": "event"
    },
    {
      "anonymous": false,
      "inputs": [
        {
          "indexed": true,
          "internalType": "bytes32",
          "name": "consentId",
          "type": "bytes32"
        },
        {
          "indexed": true,
          "internalType": "address",
          "name": "researcher",
          "type": "address"
        },
        {
          "indexed": false,
          "internalType": "string",
          "name": "purpose",
          "type": "string"
        }
      ],
      "name": "ResearchRequested",
      "type": "event"
    },
    {
      "anonymous": false,
      "inputs": [
        {
          "indexed": true,
          "internalType": "address",
          "name": "contributor",
          "type": "address"
        },
        {
          "indexed": false,
          "internalType": "uint256",
          "name": "amount",
          "type": "uint256"
        }
      ],
      "name": "TokenRewardDistributed",
      "type": "event"
    },
    {
      "inputs": [
        {
          "internalType": "bytes32",
          "name": "_consentId",
          "type": "bytes32"
        },
        {
          "internalType": "uint256",
          "name": "_requestIndex",
          "type": "uint256"
        }
      ],
      "name": "approveResearchRequest",
      "outputs": [],
      "stateMutability": "nonpayable",
      "type": "function"
    },
    {
      "inputs": [
        {
          "internalType": "bytes32",
          "name": "",
          "type": "bytes32"
        }
      ],
      "name": "consents",
      "outputs": [
        {
          "internalType": "address",
          "name": "contributor",
          "type": "address"
        },
        {
          "internalType": "string",
          "name": "dataHash",
          "type": "string"
        },
        {
          "internalType": "string",
          "name": "dataType",
          "type": "string"
        },
        {
          "internalType": "string",
          "name": "description",
          "type": "string"
        },
        {
          "internalType": "uint256",
          "name": "timestamp",
          "type": "uint256"
        },
        {
          "internalType": "bool",
          "name": "isActive",
          "type": "bool"
        },
        {
          "internalType": "uint256",
          "name": "accessCount",
          "type": "uint256"
        }
      ],
      "stateMutability": "view",
      "type": "function"
    },
    {
      "inputs": [
        {
          "internalType": "address",
          "name": "",
          "type": "address"
        },
        {
          "internalType": "uint256",
          "name": "",
          "type": "uint256"
        }
      ],
      "name": "contributorConsents",
      "outputs": [
        {
          "internalType": "bytes32",
          "name": "",
          "type": "bytes32"
        }
      ],
      "stateMutability": "view",
      "type": "function"
    },
    {
      "inputs": [
        {
          "internalType": "string",
          "name": "_dataHash",
          "type": "string"
        },
        {
          "internalType": "string",
          "name": "_dataType",
          "type": "string"
        },
        {
          "internalType": "string",
          "name": "_description",
          "type": "string"
        }
      ],
      "name": "createConsent",
      "outputs": [
        {
          "internalType": "bytes32",
          "name": "",
          "type": "bytes32"
        }
      ],
      "stateMutability": "nonpayable",
      "type": "function"
    },
    {
      "inputs": [],
      "name": "feePercentage",
      "outputs": [
        {
          "internalType": "uint256",
          "name": "",
          "type": "uint256"
        }
      ],
      "stateMutability": "view",
      "type": "function"
    },
    {
      "inputs": [
        {
          "internalType": "bytes32",
          "name": "_consentId",
          "type": "bytes32"
        }
      ],
      "name": "getConsentInfo",
      "outputs": [
        {
          "internalType": "address",
          "name": "contributor",
          "type": "address"
        },
        {
          "internalType": "string",
          "name": "dataHash",
          "type": "string"
        },
        {
          "internalType": "string",
          "name": "dataType",
          "type": "string"
        },
        {
          "internalType": "string",
          "name": "description",
          "type": "string"
        },
        {
          "internalType": "uint256",
          "name": "timestamp",
          "type": "uint256"
        },
        {
          "internalType": "bool",
          "name": "isActive",
          "type": "bool"
        },
        {
          "internalType": "uint256",
          "name": "accessCount",
          "type": "uint256"
        }
      ],
      "stateMutability": "view",
      "type": "function"
    },
    {
      "inputs": [
        {
          "internalType": "address",
          "name": "_contributor",
          "type": "address"
        }
      ],
      "name": "getContributorConsents",
      "outputs": [
        {
          "internalType": "bytes32[]",
          "name": "",
          "type": "bytes32[]"
        }
      ],
      "stateMutability": "view",
      "type": "function"
    },
    {
      "inputs": [
        {
          "internalType": "bytes32",
          "name": "_consentId",
          "type": "bytes32"
        }
      ],
      "name": "getResearchRequests",
      "outputs": [
        {
          "components": [
            {
              "internalType": "address",
              "name": "researcher",
              "type": "address"
            },
            {
              "internalType": "string",
              "name": "purpose",
              "type": "string"
            },
            {
              "internalType": "uint256",
              "name": "requestedAt",
              "type": "uint256"
            },
            {
              "internalType": "bool",
              "name": "approved",
              "type": "bool"
            },
            {
              "internalType": "uint256",
              "name": "expiresAt",
              "type": "uint256"
            }
          ],
          "internalType": "struct MedSynapseConsent.ResearchRequest[]",
          "name": "",
          "type": "tuple[]"
        }
      ],
      "stateMutability": "view",
      "type": "function"
    },
    {
      "inputs": [],
      "name": "getTokenAddress",
      "outputs": [
        {
          "internalType": "address",
          "name": "",
          "type": "address"
        }
      ],
      "stateMutability": "view",
      "type": "function"
    },
    {
      "inputs": [
        {
          "internalType": "bytes32",
          "name": "_consentId",
          "type": "bytes32"
        },
        {
          "internalType": "address",
          "name": "_researcher",
          "type": "address"
        }
      ],
      "name": "isAuthorized",
      "outputs": [
        {
          "internalType": "bool",
          "name": "",
          "type": "bool"
        }
      ],
      "stateMutability": "view",
      "type": "function"
    },
    {
      "inputs": [],
      "name": "medSynapseToken",
      "outputs": [
        {
          "internalType": "contract IMedSynapseToken",
          "name": "",
          "type": "address"
        }
      ],
      "stateMutability": "view",
      "type": "function"
    },
    {
      "inputs": [],
      "name": "owner",
      "outputs": [
        {
          "internalType": "address",
          "name": "",
          "type": "address"
        }
      ],
      "stateMutability": "view",
      "type": "function"
    },
    {
      "inputs": [
        {
          "internalType": "bytes32",
          "name": "_consentId",
          "type": "bytes32"
        }
      ],
      "name": "recordDataAccess",
      "outputs": [],
      "stateMutability": "nonpayable",
      "type": "function"
    },
    {
      "inputs": [],
      "name": "renounceOwnership",
      "outputs": [],
      "stateMutability": "nonpayable",
      "type": "function"
    },
    {
      "inputs": [
        {
          "internalType": "bytes32",
          "name": "_consentId",
          "type": "bytes32"
        },
        {
          "internalType": "string",
          "name": "_purpose",
          "type": "string"
        }
      ],
      "name": "requestDataAccess",
      "outputs": [],
      "stateMutability": "nonpayable",
      "type": "function"
    },
    {
      "inputs": [
        {
          "internalType": "bytes32",
          "name": "",
          "type": "bytes32"
        },
        {
          "internalType": "uint256",
          "name": "",
          "type": "uint256"
        }
      ],
      "name": "researchRequests",
      "outputs": [
        {
          "internalType": "address",
          "name": "researcher",
          "type": "address"
        },
        {
          "internalType": "string",
          "name": "purpose",
          "type": "string"
        },
        {
          "internalType": "uint256",
          "name": "requestedAt",
          "type": "uint256"
        },
        {
          "internalType": "bool",
          "name": "approved",
          "type": "bool"
        },
        {
          "internalType": "uint256",
          "name": "expiresAt",
          "type": "uint256"
        }
      ],
      "stateMutability": "view",
      "type": "function"
    },
    {
      "inputs": [
        {
          "internalType": "bytes32",
          "name": "_consentId",
          "type": "bytes32"
        }
      ],
      "name": "revokeConsent",
      "outputs": [],
      "stateMutability": "nonpayable",
      "type": "function"
    },
    {
      "inputs": [
        {
          "internalType": "uint256",
          "name": "_newFee",
          "type": "uint256"
        }
      ],
      "name": "setFeePercentage",
      "outputs": [],
      "stateMutability": "nonpayable",
      "type": "function"
    },
    {
      "inputs": [
        {
          "internalType": "address",
          "name": "_tokenAddress",
          "type": "address"
        }
      ],
      "name": "setMedSynapseToken",
      "outputs": [],
      "stateMutability": "nonpayable",
      "type": "function"
    },
    {
      "inputs": [
        {
          "internalType": "bool",
          "name": "_enabled",
          "type": "bool"
        }
      ],
      "name": "setTokenRewardsEnabled",
      "outputs": [],
      "stateMutability": "nonpayable",
      "type": "function"
    },
    {
      "inputs": [],
      "name": "tokenRewardsEnabled",
      "outputs": [
        {
          "internalType": "bool",
          "name": "",
          "type": "bool"
        }
      ],
      "stateMutability": "view",
      "type": "function"
    },
    {
      "inputs": [],
      "name": "totalConsents",
      "outputs": [
        {
          "internalType": "uint256",
          "name": "",
          "type": "uint256"
        }
      ],
      "stateMutability": "view",
      "type": "function"
    },
    {
      "inputs": [
        {
          "internalType": "address",
          "name": "newOwner",
          "type": "address"
        }
      ],
      "name": "transferOwnership",
      "outputs": [],
      "stateMutability": "nonpayable",
      "type": "function"
    }
  ],
  "bytecode": "0x608060405260056006556001600760146101000a81548160ff0219169083151502179055503480156200003157600080fd5b5062000052620000466200005f60201b60201c565b6200006760201b60201c565b600180819055506200012b565b600033905090565b60008060009054906101000a900473ffffffffffffffffffffffffffffffffffffffff169050816000806101000a81548173ffffffffffffffffffffffffffffffffffffffff021916908373ffffffffffffffffffffffffffffffffffffffff1602179055508173ffffffffffffffffffffffffffffffffffffffff168173ffffffffffffffffffffffffffffffffffffffff167f8be0079c531659141344cd1fd0a4f28419497f9722a3daafe3b4186f6b6457e060405160405180910390a35050565b612fa0806200013b6000396000f3fe608060405234801561001057600080fd5b506004361061014c5760003560e01c80638bd7dac2116100c3578063b3d8ccbd1161007c578063b3d8ccbd1461037b578063e99b2fd5146103b1578063ec1ec69a146103cd578063f229813f14610403578063f2fde38b14610433578063fa7cbb7d1461044f5761014c565b80638bd7dac2146102a75780638d203ea4146102d75780638da5cb5b146102f3578063956db46514610311578063a001ecdd14610341578063ae06c1b71461035f5761014c565b806337cb94aa1161011557806337cb94aa1461020d578063429d15ee146102295780634d3e7aff146102455780636a55252f14610263578063715018a614610281578063892db3e21461028b5761014c565b8062aaa3e81461015157806307a0315d1461018557806310fe9ae8146101a157806329c93175146101bf57806335bc4050146101dd575b600080fd5b61016b60048036038101906101669190611b70565b61047f565b60405161017c959493929190611cab565b60405180910390f35b61019f600480360381019061019a9190611d05565b610587565b005b6101a9610695565b6040516101b69190611d32565b60405180910390f35b6101c76106bf565b6040516101d49190611d4d565b60405180910390f35b6101f760048036038101906101f29190611d94565b6106c5565b6040516102049190611de3565b60405180910390f35b61022760048036038101906102229190611f33565b6106f6565b005b610243600480360381019061023e9190611b70565b610974565b005b61024d610c46565b60405161025a9190611f8f565b60405180910390f35b61026b610c59565b6040516102789190612009565b60405180910390f35b610289610c7f565b005b6102a560048036038101906102a09190612024565b610c93565b005b6102c160048036038101906102bc9190612024565b610cdf565b6040516102ce919061210f565b60405180910390f35b6102f160048036038101906102ec919061215d565b610d76565b005b6102fb610d9b565b6040516103089190611d32565b60405180910390f35b61032b6004803603810190610326919061218a565b610dc4565b6040516103389190611f8f565b60405180910390f35b610349610e4e565b6040516103569190611d4d565b60405180910390f35b610379600480360381019061037491906121ca565b610e54565b005b61039560048036038101906103909190611d05565b610eaa565b6040516103a897969594939291906121f7565b60405180910390f35b6103cb60048036038101906103c69190611d05565b6110b1565b005b6103e760048036038101906103e29190611d05565b6111c5565b6040516103fa97969594939291906121f7565b60405180910390f35b61041d6004803603810190610418919061227b565b6113f2565b60405161042a9190611de3565b60405180910390f35b61044d60048036038101906104489190612024565b61179a565b005b61046960048036038101906104649190611d05565b61181d565b60405161047691906124d1565b60405180910390f35b6004602052816000526040600020818154811061049b57600080fd5b9060005260206000209060050201600091509150508060000160009054906101000a900473ffffffffffffffffffffffffffffffffffffffff16908060010180546104e590612522565b80601f016020809104026020016040519081016040528092919081815260200182805461051190612522565b801561055e5780601f106105335761010080835404028352916020019161055e565b820191906000526020600020905b81548152906001019060200180831161054157829003601f168201915b5050505050908060020154908060030160009054906101000a900460ff16908060040154905085565b60006002600083815260200190815260200160002090503373ffffffffffffffffffffffffffffffffffffffff168160000160009054906101000a900473ffffffffffffffffffffffffffffffffffffffff1673ffffffffffffffffffffffffffffffffffffffff1614610630576040517f08c379a00000000000000000000000000000000000000000000000000000000081526004016106279061259f565b60405180910390fd5b60008160050160006101000a81548160ff0219169083151502179055503373ffffffffffffffffffffffffffffffffffffffff16827f3e0efaa01c6564bd2b44271408ee50f33954c939781c9f86a2e12eccf1371da460405160405180910390a35050565b6000600760009054906101000a900473ffffffffffffffffffffffffffffffffffffffff16905090565b60055481565b600360205281600052604060002081815481106106e157600080fd5b90600052602060002001600091509150505481565b6002600083815260200190815260200160002060050160009054906101000a900460ff16610759576040517f08c379a00000000000000000000000000000000000000000000000000000000081526004016107509061260b565b60405180910390fd5b600073ffffffffffffffffffffffffffffffffffffffff166002600084815260200190815260200160002060000160009054906101000a900473ffffffffffffffffffffffffffffffffffffffff1673ffffffffffffffffffffffffffffffffffffffff16036107fe576040517f08c379a00000000000000000000000000000000000000000000000000000000081526004016107f590612677565b60405180910390fd5b60006040518060a001604052803373ffffffffffffffffffffffffffffffffffffffff16815260200183815260200142815260200160001515815260200162278d004261084b91906126c6565b81525090506004600084815260200190815260200160002081908060018154018082558091505060019003906000526020600020906005020160009091909190915060008201518160000160006101000a81548173ffffffffffffffffffffffffffffffffffffffff021916908373ffffffffffffffffffffffffffffffffffffffff16021790555060208201518160010190816108e9919061289c565b506040820151816002015560608201518160030160006101000a81548160ff0219169083151502179055506080820151816004015550503373ffffffffffffffffffffffffffffffffffffffff16837f0d31edc4a2d7af599cd021961d968e50ece0e7793461e3ede47eafa49dd1b45a84604051610967919061296e565b60405180910390a3505050565b60006002600084815260200190815260200160002090503373ffffffffffffffffffffffffffffffffffffffff168160000160009054906101000a900473ffffffffffffffffffffffffffffffffffffffff1673ffffffffffffffffffffffffffffffffffffffff1614610a1d576040517f08c379a0000000000000000000000000000000000000000000000000000000008152600401610a14906129dc565b60405180910390fd5b8060050160009054906101000a900460ff16610a6e576040517f08c379a0000000000000000000000000000000000000000000000000000000008152600401610a659061260b565b60405180910390fd5b6000600460008581526020019081526020016000208381548110610a9557610a946129fc565b5b906000526020600020906005020190508060030160009054906101000a900460ff1615610af7576040517f08c379a0000000000000000000000000000000000000000000000000000000008152600401610aee90612a77565b60405180910390fd5b42816004015411610b3d576040517f08c379a0000000000000000000000000000000000000000000000000000000008152600401610b3490612ae3565b60405180910390fd5b60018160030160006101000a81548160ff02191690831515021790555060018260070160008360000160009054906101000a900473ffffffffffffffffffffffffffffffffffffffff1673ffffffffffffffffffffffffffffffffffffffff1673ffffffffffffffffffffffffffffffffffffffff16815260200190815260200160002060006101000a81548160ff0219169083151502179055508060000160009054906101000a900473ffffffffffffffffffffffffffffffffffffffff1673ffffffffffffffffffffffffffffffffffffffff16847f7a29f5abc8c6e97c4ba32488d06f6be5bc338c5aff4621e464c1e55285dacebe60405160405180910390a350505050565b600760149054906101000a900460ff1681565b600760009054906101000a900473ffffffffffffffffffffffffffffffffffffffff1681565b610c876119a6565b610c916000611a24565b565b610c9b6119a6565b80600760006101000a81548173ffffffffffffffffffffffffffffffffffffffff021916908373ffffffffffffffffffffffffffffffffffffffff16021790555050565b6060600360008373ffffffffffffffffffffffffffffffffffffffff1673ffffffffffffffffffffffffffffffffffffffff168152602001908152602001600020805480602002602001604051908101604052809291908181526020018280548015610d6a57602002820191906000526020600020905b815481526020019060010190808311610d56575b50505050509050919050565b610d7e6119a6565b80600760146101000a81548160ff02191690831515021790555050565b60008060009054906101000a900473ffffffffffffffffffffffffffffffffffffffff16905090565b6000806002600085815260200190815260200160002090508060050160009054906101000a900460ff168015610e4557508060070160008473ffffffffffffffffffffffffffffffffffffffff1673ffffffffffffffffffffffffffffffffffffffff16815260200190815260200160002060009054906101000a900460ff165b91505092915050565b60065481565b610e5c6119a6565b600a811115610ea0576040517f08c379a0000000000000000000000000000000000000000000000000000000008152600401610e9790612b4f565b60405180910390fd5b8060068190555050565b60026020528060005260406000206000915090508060000160009054906101000a900473ffffffffffffffffffffffffffffffffffffffff1690806001018054610ef390612522565b80601f0160208091040260200160405190810160405280929190818152602001828054610f1f90612522565b8015610f6c5780601f10610f4157610100808354040283529160200191610f6c565b820191906000526020600020905b815481529060010190602001808311610f4f57829003601f168201915b505050505090806002018054610f8190612522565b80601f0160208091040260200160405190810160405280929190818152602001828054610fad90612522565b8015610ffa5780601f10610fcf57610100808354040283529160200191610ffa565b820191906000526020600020905b815481529060010190602001808311610fdd57829003601f168201915b50505050509080600301805461100f90612522565b80601f016020809104026020016040519081016040528092919081815260200182805461103b90612522565b80156110885780601f1061105d57610100808354040283529160200191611088565b820191906000526020600020905b81548152906001019060200180831161106b57829003601f168201915b5050505050908060040154908060050160009054906101000a900460ff16908060060154905087565b60006002600083815260200190815260200160002090508060050160009054906101000a900460ff16611119576040517f08c379a00000000000000000000000000000000000000000000000000000000081526004016111109061260b565b60405180910390fd5b8060070160003373ffffffffffffffffffffffffffffffffffffffff1673ffffffffffffffffffffffffffffffffffffffff16815260200190815260200160002060009054906101000a900460ff166111a7576040517f08c379a000000000000000000000000000000000000000000000000000000000815260040161119e90612bbb565b60405180910390fd5b8060060160008154809291906111bc90612bdb565b91905055505050565b60006060806060600080600080600260008a815260200190815260200160002090508060000160009054906101000a900473ffffffffffffffffffffffffffffffffffffffff1681600101826002018360030184600401548560050160009054906101000a900460ff16866006015485805461124090612522565b80601f016020809104026020016040519081016040528092919081815260200182805461126c90612522565b80156112b95780601f1061128e576101008083540402835291602001916112b9565b820191906000526020600020905b81548152906001019060200180831161129c57829003601f168201915b505050505095508480546112cc90612522565b80601f01602080910402602001604051908101604052809291908181526020018280546112f890612522565b80156113455780601f1061131a57610100808354040283529160200191611345565b820191906000526020600020905b81548152906001019060200180831161132857829003601f168201915b5050505050945083805461135890612522565b80601f016020809104026020016040519081016040528092919081815260200182805461138490612522565b80156113d15780601f106113a6576101008083540402835291602001916113d1565b820191906000526020600020905b8154815290600101906020018083116113b457829003601f168201915b50505050509350975097509750975097509750975050919395979092949650565b600080845111611437576040517f08c379a000000000000000000000000000000000000000000000000000000000815260040161142e90612c6f565b60405180910390fd5b600083511161147b576040517f08c379a000000000000000000000000000000000000000000000000000000000815260040161147290612cdb565b60405180910390fd5b6000338585426040516020016114949493929190612da0565b6040516020818303038152906040528051906020012090506000600260008381526020019081526020016000209050338160000160006101000a81548173ffffffffffffffffffffffffffffffffffffffff021916908373ffffffffffffffffffffffffffffffffffffffff16021790555085816001019081611517919061289c565b5084816002019081611529919061289c565b508381600301908161153b919061289c565b5042816004018190555060018160050160006101000a81548160ff02191690831515021790555060008160060181905550600360003373ffffffffffffffffffffffffffffffffffffffff1673ffffffffffffffffffffffffffffffffffffffff168152602001908152602001600020829080600181540180825580915050600190039060005260206000200160009091909190915055600560008154809291906115e590612bdb565b9190505550600760149054906101000a900460ff1680156116555750600073ffffffffffffffffffffffffffffffffffffffff16600760009054906101000a900473ffffffffffffffffffffffffffffffffffffffff1673ffffffffffffffffffffffffffffffffffffffff1614155b1561173f57600760009054906101000a900473ffffffffffffffffffffffffffffffffffffffff1673ffffffffffffffffffffffffffffffffffffffff16633c87a97033886040518363ffffffff1660e01b81526004016116b7929190612de6565b600060405180830381600087803b1580156116d157600080fd5b505af19250505080156116e2575060015b1561173e573373ffffffffffffffffffffffffffffffffffffffff167f3a61002c22cbb65a422dd1ac3eeb6a3e7dfeb7cecd08256ac857e5dc18b5b3e3678ac7230489e800006040516117359190612e51565b60405180910390a25b5b3373ffffffffffffffffffffffffffffffffffffffff16827f213e5cdb63782340a300e34139fb9380faded585f549186749370a77970bb53c88604051611786919061296e565b60405180910390a381925050509392505050565b6117a26119a6565b600073ffffffffffffffffffffffffffffffffffffffff168173ffffffffffffffffffffffffffffffffffffffff1603611811576040517f08c379a000000000000000000000000000000000000000000000000000000000815260040161180890612ede565b60405180910390fd5b61181a81611a24565b50565b606060046000838152602001908152602001600020805480602002602001604051908101604052809291908181526020016000905b8282101561199b57838290600052602060002090600502016040518060a00160405290816000820160009054906101000a900473ffffffffffffffffffffffffffffffffffffffff1673ffffffffffffffffffffffffffffffffffffffff1673ffffffffffffffffffffffffffffffffffffffff1681526020016001820180546118db90612522565b80601f016020809104026020016040519081016040528092919081815260200182805461190790612522565b80156119545780601f1061192957610100808354040283529160200191611954565b820191906000526020600020905b81548152906001019060200180831161193757829003601f168201915b50505050508152602001600282015481526020016003820160009054906101000a900460ff1615151515815260200160048201548152505081526020019060010190611852565b505050509050919050565b6119ae611ae8565b73ffffffffffffffffffffffffffffffffffffffff166119cc610d9b565b73ffffffffffffffffffffffffffffffffffffffff1614611a22576040517f08c379a0000000000000000000000000000000000000000000000000000000008152600401611a1990612f4a565b60405180910390fd5b565b60008060009054906101000a900473ffffffffffffffffffffffffffffffffffffffff169050816000806101000a81548173ffffffffffffffffffffffffffffffffffffffff021916908373ffffffffffffffffffffffffffffffffffffffff1602179055508173ffffffffffffffffffffffffffffffffffffffff168173ffffffffffffffffffffffffffffffffffffffff167f8be0079c531659141344cd1fd0a4f28419497f9722a3daafe3b4186f6b6457e060405160405180910390a35050565b600033905090565b6000604051905090565b600080fd5b600080fd5b6000819050919050565b611b1781611b04565b8114611b2257600080fd5b50565b600081359050611b3481611b0e565b92915050565b6000819050919050565b611b4d81611b3a565b8114611b5857600080fd5b50565b600081359050611b6a81611b44565b92915050565b60008060408385031215611b8757611b86611afa565b5b6000611b9585828601611b25565b9250506020611ba685828601611b5b565b9150509250929050565b600073ffffffffffffffffffffffffffffffffffffffff82169050919050565b6000611bdb82611bb0565b9050919050565b611beb81611bd0565b82525050565b600081519050919050565b600082825260208201905092915050565b60005b83811015611c2b578082015181840152602081019050611c10565b60008484015250505050565b6000601f19601f8301169050919050565b6000611c5382611bf1565b611c5d8185611bfc565b9350611c6d818560208601611c0d565b611c7681611c37565b840191505092915050565b611c8a81611b3a565b82525050565b60008115159050919050565b611ca581611c90565b82525050565b600060a082019050611cc06000830188611be2565b8181036020830152611cd28187611c48565b9050611ce16040830186611c81565b611cee6060830185611c9c565b611cfb6080830184611c81565b9695505050505050565b600060208284031215611d1b57611d1a611afa565b5b6000611d2984828501611b25565b91505092915050565b6000602082019050611d476000830184611be2565b92915050565b6000602082019050611d626000830184611c81565b92915050565b611d7181611bd0565b8114611d7c57600080fd5b50565b600081359050611d8e81611d68565b92915050565b60008060408385031215611dab57611daa611afa565b5b6000611db985828601611d7f565b9250506020611dca85828601611b5b565b9150509250929050565b611ddd81611b04565b82525050565b6000602082019050611df86000830184611dd4565b92915050565b600080fd5b600080fd5b7f4e487b7100000000000000000000000000000000000000000000000000000000600052604160045260246000fd5b611e4082611c37565b810181811067ffffffffffffffff82111715611e5f57611e5e611e08565b5b80604052505050565b6000611e72611af0565b9050611e7e8282611e37565b919050565b600067ffffffffffffffff821115611e9e57611e9d611e08565b5b611ea782611c37565b9050602081019050919050565b82818337600083830152505050565b6000611ed6611ed184611e83565b611e68565b905082815260208101848484011115611ef257611ef1611e03565b5b611efd848285611eb4565b509392505050565b600082601f830112611f1a57611f19611dfe565b5b8135611f2a848260208601611ec3565b91505092915050565b60008060408385031215611f4a57611f49611afa565b5b6000611f5885828601611b25565b925050602083013567ffffffffffffffff811115611f7957611f78611aff565b5b611f8585828601611f05565b9150509250929050565b6000602082019050611fa46000830184611c9c565b92915050565b6000819050919050565b6000611fcf611fca611fc584611bb0565b611faa565b611bb0565b9050919050565b6000611fe182611fb4565b9050919050565b6000611ff382611fd6565b9050919050565b61200381611fe8565b82525050565b600060208201905061201e6000830184611ffa565b92915050565b60006020828403121561203a57612039611afa565b5b600061204884828501611d7f565b91505092915050565b600081519050919050565b600082825260208201905092915050565b6000819050602082019050919050565b61208681611b04565b82525050565b6000612098838361207d565b60208301905092915050565b6000602082019050919050565b60006120bc82612051565b6120c6818561205c565b93506120d18361206d565b8060005b838110156121025781516120e9888261208c565b97506120f4836120a4565b9250506001810190506120d5565b5085935050505092915050565b6000602082019050818103600083015261212981846120b1565b905092915050565b61213a81611c90565b811461214557600080fd5b50565b60008135905061215781612131565b92915050565b60006020828403121561217357612172611afa565b5b600061218184828501612148565b91505092915050565b600080604083850312156121a1576121a0611afa565b5b60006121af85828601611b25565b92505060206121c085828601611d7f565b9150509250929050565b6000602082840312156121e0576121df611afa565b5b60006121ee84828501611b5b565b91505092915050565b600060e08201905061220c600083018a611be2565b818103602083015261221e8189611c48565b905081810360408301526122328188611c48565b905081810360608301526122468187611c48565b90506122556080830186611c81565b61226260a0830185611c9c565b61226f60c0830184611c81565b98975050505050505050565b60008060006060848603121561229457612293611afa565b5b600084013567ffffffffffffffff8111156122b2576122b1611aff565b5b6122be86828701611f05565b935050602084013567ffffffffffffffff8111156122df576122de611aff565b5b6122eb86828701611f05565b925050604084013567ffffffffffffffff81111561230c5761230b611aff565b5b61231886828701611f05565b9150509250925092565b600081519050919050565b600082825260208201905092915050565b6000819050602082019050919050565b61235781611bd0565b82525050565b600082825260208201905092915050565b600061237982611bf1565b612383818561235d565b9350612393818560208601611c0d565b61239c81611c37565b840191505092915050565b6123b081611b3a565b82525050565b6123bf81611c90565b82525050565b600060a0830160008301516123dd600086018261234e565b50602083015184820360208601526123f5828261236e565b915050604083015161240a60408601826123a7565b50606083015161241d60608601826123b6565b50608083015161243060808601826123a7565b508091505092915050565b600061244783836123c5565b905092915050565b6000602082019050919050565b600061246782612322565b612471818561232d565b9350836020820285016124838561233e565b8060005b858110156124bf57848403895281516124a0858261243b565b94506124ab8361244f565b925060208a01995050600181019050612487565b50829750879550505050505092915050565b600060208201905081810360008301526124eb818461245c565b905092915050565b7f4e487b7100000000000000000000000000000000000000000000000000000000600052602260045260246000fd5b6000600282049050600182168061253a57607f821691505b60208210810361254d5761254c6124f3565b5b50919050565b7f4f6e6c7920636f6e7472696275746f722063616e207265766f6b650000000000600082015250565b6000612589601b83611bfc565b915061259482612553565b602082019050919050565b600060208201905081810360008301526125b88161257c565b9050919050565b7f436f6e73656e74206e6f74206163746976650000000000000000000000000000600082015250565b60006125f5601283611bfc565b9150612600826125bf565b602082019050919050565b60006020820190508181036000830152612624816125e8565b9050919050565b7f496e76616c696420636f6e73656e740000000000000000000000000000000000600082015250565b6000612661600f83611bfc565b915061266c8261262b565b602082019050919050565b6000602082019050818103600083015261269081612654565b9050919050565b7f4e487b7100000000000000000000000000000000000000000000000000000000600052601160045260246000fd5b60006126d182611b3a565b91506126dc83611b3a565b92508282019050808211156126f4576126f3612697565b5b92915050565b60008190508160005260206000209050919050565b60006020601f8301049050919050565b600082821b905092915050565b60006008830261275c7fffffffffffffffffffffffffffffffffffffffffffffffffffffffffffffffff8261271f565b612766868361271f565b95508019841693508086168417925050509392505050565b600061279961279461278f84611b3a565b611faa565b611b3a565b9050919050565b6000819050919050565b6127b38361277e565b6127c76127bf826127a0565b84845461272c565b825550505050565b600090565b6127dc6127cf565b6127e78184846127aa565b505050565b5b8181101561280b576128006000826127d4565b6001810190506127ed565b5050565b601f82111561285057612821816126fa565b61282a8461270f565b81016020851015612839578190505b61284d6128458561270f565b8301826127ec565b50505b505050565b600082821c905092915050565b600061287360001984600802612855565b1980831691505092915050565b600061288c8383612862565b9150826002028217905092915050565b6128a582611bf1565b67ffffffffffffffff8111156128be576128bd611e08565b5b6128c88254612522565b6128d382828561280f565b600060209050601f83116001811461290657600084156128f4578287015190505b6128fe8582612880565b865550612966565b601f198416612914866126fa565b60005b8281101561293c57848901518255600182019150602085019450602081019050612917565b868310156129595784890151612955601f891682612862565b8355505b6001600288020188555050505b505050505050565b600060208201905081810360008301526129888184611c48565b905092915050565b7f4f6e6c7920636f6e7472696275746f722063616e20617070726f766500000000600082015250565b60006129c6601c83611bfc565b91506129d182612990565b602082019050919050565b600060208201905081810360008301526129f5816129b9565b9050919050565b7f4e487b7100000000000000000000000000000000000000000000000000000000600052603260045260246000fd5b7f416c726561647920617070726f76656400000000000000000000000000000000600082015250565b6000612a61601083611bfc565b9150612a6c82612a2b565b602082019050919050565b60006020820190508181036000830152612a9081612a54565b9050919050565b7f5265717565737420657870697265640000000000000000000000000000000000600082015250565b6000612acd600f83611bfc565b9150612ad882612a97565b602082019050919050565b60006020820190508181036000830152612afc81612ac0565b9050919050565b7f46656520746f6f20686967680000000000000000000000000000000000000000600082015250565b6000612b39600c83611bfc565b9150612b4482612b03565b602082019050919050565b60006020820190508181036000830152612b6881612b2c565b9050919050565b7f4e6f7420617574686f72697a6564000000000000000000000000000000000000600082015250565b6000612ba5600e83611bfc565b9150612bb082612b6f565b602082019050919050565b60006020820190508181036000830152612bd481612b98565b9050919050565b6000612be682611b3a565b91507fffffffffffffffffffffffffffffffffffffffffffffffffffffffffffffffff8203612c1857612c17612697565b5b600182019050919050565b7f4461746120686173682063616e6e6f7420626520656d70747900000000000000600082015250565b6000612c59601983611bfc565b9150612c6482612c23565b602082019050919050565b60006020820190508181036000830152612c8881612c4c565b9050919050565b7f4461746120747970652063616e6e6f7420626520656d70747900000000000000600082015250565b6000612cc5601983611bfc565b9150612cd082612c8f565b602082019050919050565b60006020820190508181036000830152612cf481612cb8565b9050919050565b60008160601b9050919050565b6000612d1382612cfb565b9050919050565b6000612d2582612d08565b9050919050565b612d3d612d3882611bd0565b612d1a565b82525050565b600081905092915050565b6000612d5982611bf1565b612d638185612d43565b9350612d73818560208601611c0d565b80840191505092915050565b6000819050919050565b612d9a612d9582611b3a565b612d7f565b82525050565b6000612dac8287612d2c565b601482019150612dbc8286612d4e565b9150612dc88285612d4e565b9150612dd48284612d89565b60208201915081905095945050505050565b6000604082019050612dfb6000830185611be2565b8181036020830152612e0d8184611c48565b90509392505050565b6000819050919050565b6000612e3b612e36612e3184612e16565b611faa565b611b3a565b9050919050565b612e4b81612e20565b82525050565b6000602082019050612e666000830184612e42565b92915050565b7f4f776e61626c653a206e6577206f776e657220697320746865207a65726f206160008201527f6464726573730000000000000000000000000000000000000000000000000000602082015250565b6000612ec8602683611bfc565b9150612ed382612e6c565b604082019050919050565b60006020820190508181036000830152612ef781612ebb565b9050919050565b7f4f776e61626c653a2063616c6c6572206973206e6f7420746865206f776e6572600082015250565b6000612f34602083611bfc565b9150612f3f82612efe565b602082019050919050565b60006020820190508181036000830152612f6381612f27565b905091905056fea2646970667358221220020237c7e75b8a6217b26f0f5f5979819a802015c74c9ed6620f9b2d1a91351b64736f6c63430008130033",
  "linkReferences": {},
  "deployedLinkReferences": {}
}