{
  "_format": "hh-sol-artifact-1",
  "contractName": "MedSynapseConsent",
  "sourceName": "contracts/MedSynapseConsent.sol",
  "abi": [
    {
      "inputs": [],
      "stateMutability": "nonpayable",
      "type": "constructor"
    },
    {
      "anonymous": false,
      "inputs": [
        {
          "indexed": true,
          "internalType": "bytes32",
          "name": "consentId",
          "type": "bytes32"
        },
        {
          "indexed": true,
          "internalType": "address",
          "name": "contributor",
          "type": "address"
        },
        {
          "indexed": false,
          "internalType": "string",
          "name": "dataHash",
          "type": "string"
        }
      ],
      "name": "ConsentCreated",
      "type": "event"
    },
    {
      "anonymous": false,
      "inputs": [
        {
          "indexed": true,
          "internalType": "bytes32",
          "name": "consentId",
          "type": "bytes32"
        },
        {
          "indexed": true,
          "internalType": "address",
          "name": "contributor",
          "type": "address"
        }
      ],
      "name": "ConsentRevoked",
      "type": "event"
    },
    {
      "anonymous": false,
      "inputs": [
        {
          "indexed": true,
          "internalType": "address",
          "name": "previousOwner",
          "type": "address"
        },
        {
          "indexed": true,
          "internalType": "address",
          "name": "newOwner",
          "type": "address"
        }
      ],
      "name": "OwnershipTransferred",
      "type": "event"
    },
    {
      "anonymous": false,
      "inputs": [
        {
          "indexed": true,
          "internalType": "bytes32",
          "name": "consentId",
          "type": "bytes32"
        },
        {
          "indexed": true,
          "internalType": "address",
          "name": "researcher",
          "type": "address"
        }
      ],
      "name": "ResearchApproved",
      "type": "event"
    },
    {
      "anonymous": false,
      "inputs": [
        {
          "indexed": true,
          "internalType": "bytes32",
          "name": "consentId",
          "type": "bytes32"
        },
        {
          "indexed": true,
          "internalType": "address",
          "name": "researcher",
          "type": "address"
        },
        {
          "indexed": false,
          "internalType": "string",
          "name": "purpose",
          "type": "string"
        }
      ],
      "name": "ResearchRequested",
      "type": "event"
    },
    {
      "inputs": [
        {
          "internalType": "bytes32",
          "name": "_consentId",
          "type": "bytes32"
        },
        {
          "internalType": "uint256",
          "name": "_requestIndex",
          "type": "uint256"
        }
      ],
      "name": "approveResearchRequest",
      "outputs": [],
      "stateMutability": "nonpayable",
      "type": "function"
    },
    {
      "inputs": [
        {
          "internalType": "bytes32",
          "name": "",
          "type": "bytes32"
        }
      ],
      "name": "consents",
      "outputs": [
        {
          "internalType": "address",
          "name": "contributor",
          "type": "address"
        },
        {
          "internalType": "string",
          "name": "dataHash",
          "type": "string"
        },
        {
          "internalType": "string",
          "name": "dataType",
          "type": "string"
        },
        {
          "internalType": "string",
          "name": "description",
          "type": "string"
        },
        {
          "internalType": "uint256",
          "name": "timestamp",
          "type": "uint256"
        },
        {
          "internalType": "bool",
          "name": "isActive",
          "type": "bool"
        },
        {
          "internalType": "uint256",
          "name": "accessCount",
          "type": "uint256"
        }
      ],
      "stateMutability": "view",
      "type": "function"
    },
    {
      "inputs": [
        {
          "internalType": "address",
          "name": "",
          "type": "address"
        },
        {
          "internalType": "uint256",
          "name": "",
          "type": "uint256"
        }
      ],
      "name": "contributorConsents",
      "outputs": [
        {
          "internalType": "bytes32",
          "name": "",
          "type": "bytes32"
        }
      ],
      "stateMutability": "view",
      "type": "function"
    },
    {
      "inputs": [
        {
          "internalType": "string",
          "name": "_dataHash",
          "type": "string"
        },
        {
          "internalType": "string",
          "name": "_dataType",
          "type": "string"
        },
        {
          "internalType": "string",
          "name": "_description",
          "type": "string"
        }
      ],
      "name": "createConsent",
      "outputs": [
        {
          "internalType": "bytes32",
          "name": "",
          "type": "bytes32"
        }
      ],
      "stateMutability": "nonpayable",
      "type": "function"
    },
    {
      "inputs": [],
      "name": "feePercentage",
      "outputs": [
        {
          "internalType": "uint256",
          "name": "",
          "type": "uint256"
        }
      ],
      "stateMutability": "view",
      "type": "function"
    },
    {
      "inputs": [
        {
          "internalType": "bytes32",
          "name": "_consentId",
          "type": "bytes32"
        }
      ],
      "name": "getConsentInfo",
      "outputs": [
        {
          "internalType": "address",
          "name": "contributor",
          "type": "address"
        },
        {
          "internalType": "string",
          "name": "dataHash",
          "type": "string"
        },
        {
          "internalType": "string",
          "name": "dataType",
          "type": "string"
        },
        {
          "internalType": "string",
          "name": "description",
          "type": "string"
        },
        {
          "internalType": "uint256",
          "name": "timestamp",
          "type": "uint256"
        },
        {
          "internalType": "bool",
          "name": "isActive",
          "type": "bool"
        },
        {
          "internalType": "uint256",
          "name": "accessCount",
          "type": "uint256"
        }
      ],
      "stateMutability": "view",
      "type": "function"
    },
    {
      "inputs": [
        {
          "internalType": "address",
          "name": "_contributor",
          "type": "address"
        }
      ],
      "name": "getContributorConsents",
      "outputs": [
        {
          "internalType": "bytes32[]",
          "name": "",
          "type": "bytes32[]"
        }
      ],
      "stateMutability": "view",
      "type": "function"
    },
    {
      "inputs": [
        {
          "internalType": "bytes32",
          "name": "_consentId",
          "type": "bytes32"
        }
      ],
      "name": "getResearchRequests",
      "outputs": [
        {
          "components": [
            {
              "internalType": "address",
              "name": "researcher",
              "type": "address"
            },
            {
              "internalType": "string",
              "name": "purpose",
              "type": "string"
            },
            {
              "internalType": "uint256",
              "name": "requestedAt",
              "type": "uint256"
            },
            {
              "internalType": "bool",
              "name": "approved",
              "type": "bool"
            },
            {
              "internalType": "uint256",
              "name": "expiresAt",
              "type": "uint256"
            }
          ],
          "internalType": "struct MedSynapseConsent.ResearchRequest[]",
          "name": "",
          "type": "tuple[]"
        }
      ],
      "stateMutability": "view",
      "type": "function"
    },
    {
      "inputs": [
        {
          "internalType": "bytes32",
          "name": "_consentId",
          "type": "bytes32"
        },
        {
          "internalType": "address",
          "name": "_researcher",
          "type": "address"
        }
      ],
      "name": "isAuthorized",
      "outputs": [
        {
          "internalType": "bool",
          "name": "",
          "type": "bool"
        }
      ],
      "stateMutability": "view",
      "type": "function"
    },
    {
      "inputs": [],
      "name": "owner",
      "outputs": [
        {
          "internalType": "address",
          "name": "",
          "type": "address"
        }
      ],
      "stateMutability": "view",
      "type": "function"
    },
    {
      "inputs": [
        {
          "internalType": "bytes32",
          "name": "_consentId",
          "type": "bytes32"
        }
      ],
      "name": "recordDataAccess",
      "outputs": [],
      "stateMutability": "nonpayable",
      "type": "function"
    },
    {
      "inputs": [],
      "name": "renounceOwnership",
      "outputs": [],
      "stateMutability": "nonpayable",
      "type": "function"
    },
    {
      "inputs": [
        {
          "internalType": "bytes32",
          "name": "_consentId",
          "type": "bytes32"
        },
        {
          "internalType": "string",
          "name": "_purpose",
          "type": "string"
        }
      ],
      "name": "requestDataAccess",
      "outputs": [],
      "stateMutability": "nonpayable",
      "type": "function"
    },
    {
      "inputs": [
        {
          "internalType": "bytes32",
          "name": "",
          "type": "bytes32"
        },
        {
          "internalType": "uint256",
          "name": "",
          "type": "uint256"
        }
      ],
      "name": "researchRequests",
      "outputs": [
        {
          "internalType": "address",
          "name": "researcher",
          "type": "address"
        },
        {
          "internalType": "string",
          "name": "purpose",
          "type": "string"
        },
        {
          "internalType": "uint256",
          "name": "requestedAt",
          "type": "uint256"
        },
        {
          "internalType": "bool",
          "name": "approved",
          "type": "bool"
        },
        {
          "internalType": "uint256",
          "name": "expiresAt",
          "type": "uint256"
        }
      ],
      "stateMutability": "view",
      "type": "function"
    },
    {
      "inputs": [
        {
          "internalType": "bytes32",
          "name": "_consentId",
          "type": "bytes32"
        }
      ],
      "name": "revokeConsent",
      "outputs": [],
      "stateMutability": "nonpayable",
      "type": "function"
    },
    {
      "inputs": [
        {
          "internalType": "uint256",
          "name": "_newFee",
          "type": "uint256"
        }
      ],
      "name": "setFeePercentage",
      "outputs": [],
      "stateMutability": "nonpayable",
      "type": "function"
    },
    {
      "inputs": [],
      "name": "totalConsents",
      "outputs": [
        {
          "internalType": "uint256",
          "name": "",
          "type": "uint256"
        }
      ],
      "stateMutability": "view",
      "type": "function"
    },
    {
      "inputs": [
        {
          "internalType": "address",
          "name": "newOwner",
          "type": "address"
        }
      ],
      "name": "transferOwnership",
      "outputs": [],
      "stateMutability": "nonpayable",
      "type": "function"
    }
  ],
  "bytecode": "0x608060405260056006553480156200001657600080fd5b50620000376200002b6200004460201b60201c565b6200004c60201b60201c565b6001808190555062000110565b600033905090565b60008060009054906101000a900473ffffffffffffffffffffffffffffffffffffffff169050816000806101000a81548173ffffffffffffffffffffffffffffffffffffffff021916908373ffffffffffffffffffffffffffffffffffffffff1602179055508173ffffffffffffffffffffffffffffffffffffffff168173ffffffffffffffffffffffffffffffffffffffff167f8be0079c531659141344cd1fd0a4f28419497f9722a3daafe3b4186f6b6457e060405160405180910390a35050565b612b5f80620001206000396000f3fe608060405234801561001057600080fd5b50600436106101155760003560e01c8063956db465116100a2578063e99b2fd511610071578063e99b2fd5146102e8578063ec1ec69a14610304578063f229813f1461033a578063f2fde38b1461036a578063fa7cbb7d1461038657610115565b8063956db46514610248578063a001ecdd14610278578063ae06c1b714610296578063b3d8ccbd146102b257610115565b806337cb94aa116100e957806337cb94aa146101b8578063429d15ee146101d4578063715018a6146101f05780638bd7dac2146101fa5780638da5cb5b1461022a57610115565b8062aaa3e81461011a57806307a0315d1461014e57806329c931751461016a57806335bc405014610188575b600080fd5b610134600480360381019061012f919061187e565b6103b6565b6040516101459594939291906119b9565b60405180910390f35b61016860048036038101906101639190611a13565b6104be565b005b6101726105cc565b60405161017f9190611a40565b60405180910390f35b6101a2600480360381019061019d9190611a87565b6105d2565b6040516101af9190611ad6565b60405180910390f35b6101d260048036038101906101cd9190611c26565b610603565b005b6101ee60048036038101906101e9919061187e565b610881565b005b6101f8610b53565b005b610214600480360381019061020f9190611c82565b610b67565b6040516102219190611d6d565b60405180910390f35b610232610bfe565b60405161023f9190611d8f565b60405180910390f35b610262600480360381019061025d9190611daa565b610c27565b60405161026f9190611dea565b60405180910390f35b610280610cb1565b60405161028d9190611a40565b60405180910390f35b6102b060048036038101906102ab9190611e05565b610cb7565b005b6102cc60048036038101906102c79190611a13565b610d0d565b6040516102df9796959493929190611e32565b60405180910390f35b61030260048036038101906102fd9190611a13565b610f14565b005b61031e60048036038101906103199190611a13565b611028565b6040516103319796959493929190611e32565b60405180910390f35b610354600480360381019061034f9190611eb6565b611255565b6040516103619190611ad6565b60405180910390f35b610384600480360381019061037f9190611c82565b6114a8565b005b6103a0600480360381019061039b9190611a13565b61152b565b6040516103ad919061210c565b60405180910390f35b600460205281600052604060002081815481106103d257600080fd5b9060005260206000209060050201600091509150508060000160009054906101000a900473ffffffffffffffffffffffffffffffffffffffff169080600101805461041c9061215d565b80601f01602080910402602001604051908101604052809291908181526020018280546104489061215d565b80156104955780601f1061046a57610100808354040283529160200191610495565b820191906000526020600020905b81548152906001019060200180831161047857829003601f168201915b5050505050908060020154908060030160009054906101000a900460ff16908060040154905085565b60006002600083815260200190815260200160002090503373ffffffffffffffffffffffffffffffffffffffff168160000160009054906101000a900473ffffffffffffffffffffffffffffffffffffffff1673ffffffffffffffffffffffffffffffffffffffff1614610567576040517f08c379a000000000000000000000000000000000000000000000000000000000815260040161055e906121da565b60405180910390fd5b60008160050160006101000a81548160ff0219169083151502179055503373ffffffffffffffffffffffffffffffffffffffff16827f3e0efaa01c6564bd2b44271408ee50f33954c939781c9f86a2e12eccf1371da460405160405180910390a35050565b60055481565b600360205281600052604060002081815481106105ee57600080fd5b90600052602060002001600091509150505481565b6002600083815260200190815260200160002060050160009054906101000a900460ff16610666576040517f08c379a000000000000000000000000000000000000000000000000000000000815260040161065d90612246565b60405180910390fd5b600073ffffffffffffffffffffffffffffffffffffffff166002600084815260200190815260200160002060000160009054906101000a900473ffffffffffffffffffffffffffffffffffffffff1673ffffffffffffffffffffffffffffffffffffffff160361070b576040517f08c379a0000000000000000000000000000000000000000000000000000000008152600401610702906122b2565b60405180910390fd5b60006040518060a001604052803373ffffffffffffffffffffffffffffffffffffffff16815260200183815260200142815260200160001515815260200162278d00426107589190612301565b81525090506004600084815260200190815260200160002081908060018154018082558091505060019003906000526020600020906005020160009091909190915060008201518160000160006101000a81548173ffffffffffffffffffffffffffffffffffffffff021916908373ffffffffffffffffffffffffffffffffffffffff16021790555060208201518160010190816107f691906124e1565b506040820151816002015560608201518160030160006101000a81548160ff0219169083151502179055506080820151816004015550503373ffffffffffffffffffffffffffffffffffffffff16837f0d31edc4a2d7af599cd021961d968e50ece0e7793461e3ede47eafa49dd1b45a8460405161087491906125b3565b60405180910390a3505050565b60006002600084815260200190815260200160002090503373ffffffffffffffffffffffffffffffffffffffff168160000160009054906101000a900473ffffffffffffffffffffffffffffffffffffffff1673ffffffffffffffffffffffffffffffffffffffff161461092a576040517f08c379a000000000000000000000000000000000000000000000000000000000815260040161092190612621565b60405180910390fd5b8060050160009054906101000a900460ff1661097b576040517f08c379a000000000000000000000000000000000000000000000000000000000815260040161097290612246565b60405180910390fd5b60006004600085815260200190815260200160002083815481106109a2576109a1612641565b5b906000526020600020906005020190508060030160009054906101000a900460ff1615610a04576040517f08c379a00000000000000000000000000000000000000000000000000000000081526004016109fb906126bc565b60405180910390fd5b42816004015411610a4a576040517f08c379a0000000000000000000000000000000000000000000000000000000008152600401610a4190612728565b60405180910390fd5b60018160030160006101000a81548160ff02191690831515021790555060018260070160008360000160009054906101000a900473ffffffffffffffffffffffffffffffffffffffff1673ffffffffffffffffffffffffffffffffffffffff1673ffffffffffffffffffffffffffffffffffffffff16815260200190815260200160002060006101000a81548160ff0219169083151502179055508060000160009054906101000a900473ffffffffffffffffffffffffffffffffffffffff1673ffffffffffffffffffffffffffffffffffffffff16847f7a29f5abc8c6e97c4ba32488d06f6be5bc338c5aff4621e464c1e55285dacebe60405160405180910390a350505050565b610b5b6116b4565b610b656000611732565b565b6060600360008373ffffffffffffffffffffffffffffffffffffffff1673ffffffffffffffffffffffffffffffffffffffff168152602001908152602001600020805480602002602001604051908101604052809291908181526020018280548015610bf257602002820191906000526020600020905b815481526020019060010190808311610bde575b50505050509050919050565b60008060009054906101000a900473ffffffffffffffffffffffffffffffffffffffff16905090565b6000806002600085815260200190815260200160002090508060050160009054906101000a900460ff168015610ca857508060070160008473ffffffffffffffffffffffffffffffffffffffff1673ffffffffffffffffffffffffffffffffffffffff16815260200190815260200160002060009054906101000a900460ff165b91505092915050565b60065481565b610cbf6116b4565b600a811115610d03576040517f08c379a0000000000000000000000000000000000000000000000000000000008152600401610cfa90612794565b60405180910390fd5b8060068190555050565b60026020528060005260406000206000915090508060000160009054906101000a900473ffffffffffffffffffffffffffffffffffffffff1690806001018054610d569061215d565b80601f0160208091040260200160405190810160405280929190818152602001828054610d829061215d565b8015610dcf5780601f10610da457610100808354040283529160200191610dcf565b820191906000526020600020905b815481529060010190602001808311610db257829003601f168201915b505050505090806002018054610de49061215d565b80601f0160208091040260200160405190810160405280929190818152602001828054610e109061215d565b8015610e5d5780601f10610e3257610100808354040283529160200191610e5d565b820191906000526020600020905b815481529060010190602001808311610e4057829003601f168201915b505050505090806003018054610e729061215d565b80601f0160208091040260200160405190810160405280929190818152602001828054610e9e9061215d565b8015610eeb5780601f10610ec057610100808354040283529160200191610eeb565b820191906000526020600020905b815481529060010190602001808311610ece57829003601f168201915b5050505050908060040154908060050160009054906101000a900460ff16908060060154905087565b60006002600083815260200190815260200160002090508060050160009054906101000a900460ff16610f7c576040517f08c379a0000000000000000000000000000000000000000000000000000000008152600401610f7390612246565b60405180910390fd5b8060070160003373ffffffffffffffffffffffffffffffffffffffff1673ffffffffffffffffffffffffffffffffffffffff16815260200190815260200160002060009054906101000a900460ff1661100a576040517f08c379a000000000000000000000000000000000000000000000000000000000815260040161100190612800565b60405180910390fd5b80600601600081548092919061101f90612820565b91905055505050565b60006060806060600080600080600260008a815260200190815260200160002090508060000160009054906101000a900473ffffffffffffffffffffffffffffffffffffffff1681600101826002018360030184600401548560050160009054906101000a900460ff1686600601548580546110a39061215d565b80601f01602080910402602001604051908101604052809291908181526020018280546110cf9061215d565b801561111c5780601f106110f15761010080835404028352916020019161111c565b820191906000526020600020905b8154815290600101906020018083116110ff57829003601f168201915b5050505050955084805461112f9061215d565b80601f016020809104026020016040519081016040528092919081815260200182805461115b9061215d565b80156111a85780601f1061117d576101008083540402835291602001916111a8565b820191906000526020600020905b81548152906001019060200180831161118b57829003601f168201915b505050505094508380546111bb9061215d565b80601f01602080910402602001604051908101604052809291908181526020018280546111e79061215d565b80156112345780601f1061120957610100808354040283529160200191611234565b820191906000526020600020905b81548152906001019060200180831161121757829003601f168201915b50505050509350975097509750975097509750975050919395979092949650565b60008084511161129a576040517f08c379a0000000000000000000000000000000000000000000000000000000008152600401611291906128b4565b60405180910390fd5b60008351116112de576040517f08c379a00000000000000000000000000000000000000000000000000000000081526004016112d590612920565b60405180910390fd5b6000338585426040516020016112f794939291906129e5565b6040516020818303038152906040528051906020012090506000600260008381526020019081526020016000209050338160000160006101000a81548173ffffffffffffffffffffffffffffffffffffffff021916908373ffffffffffffffffffffffffffffffffffffffff1602179055508581600101908161137a91906124e1565b508481600201908161138c91906124e1565b508381600301908161139e91906124e1565b5042816004018190555060018160050160006101000a81548160ff02191690831515021790555060008160060181905550600360003373ffffffffffffffffffffffffffffffffffffffff1673ffffffffffffffffffffffffffffffffffffffff1681526020019081526020016000208290806001815401808255809150506001900390600052602060002001600090919091909150556005600081548092919061144890612820565b91905055503373ffffffffffffffffffffffffffffffffffffffff16827f213e5cdb63782340a300e34139fb9380faded585f549186749370a77970bb53c8860405161149491906125b3565b60405180910390a381925050509392505050565b6114b06116b4565b600073ffffffffffffffffffffffffffffffffffffffff168173ffffffffffffffffffffffffffffffffffffffff160361151f576040517f08c379a000000000000000000000000000000000000000000000000000000000815260040161151690612a9d565b60405180910390fd5b61152881611732565b50565b606060046000838152602001908152602001600020805480602002602001604051908101604052809291908181526020016000905b828210156116a957838290600052602060002090600502016040518060a00160405290816000820160009054906101000a900473ffffffffffffffffffffffffffffffffffffffff1673ffffffffffffffffffffffffffffffffffffffff1673ffffffffffffffffffffffffffffffffffffffff1681526020016001820180546115e99061215d565b80601f01602080910402602001604051908101604052809291908181526020018280546116159061215d565b80156116625780601f1061163757610100808354040283529160200191611662565b820191906000526020600020905b81548152906001019060200180831161164557829003601f168201915b50505050508152602001600282015481526020016003820160009054906101000a900460ff1615151515815260200160048201548152505081526020019060010190611560565b505050509050919050565b6116bc6117f6565b73ffffffffffffffffffffffffffffffffffffffff166116da610bfe565b73ffffffffffffffffffffffffffffffffffffffff1614611730576040517f08c379a000000000000000000000000000000000000000000000000000000000815260040161172790612b09565b60405180910390fd5b565b60008060009054906101000a900473ffffffffffffffffffffffffffffffffffffffff169050816000806101000a81548173ffffffffffffffffffffffffffffffffffffffff021916908373ffffffffffffffffffffffffffffffffffffffff1602179055508173ffffffffffffffffffffffffffffffffffffffff168173ffffffffffffffffffffffffffffffffffffffff167f8be0079c531659141344cd1fd0a4f28419497f9722a3daafe3b4186f6b6457e060405160405180910390a35050565b600033905090565b6000604051905090565b600080fd5b600080fd5b6000819050919050565b61182581611812565b811461183057600080fd5b50565b6000813590506118428161181c565b92915050565b6000819050919050565b61185b81611848565b811461186657600080fd5b50565b60008135905061187881611852565b92915050565b6000806040838503121561189557611894611808565b5b60006118a385828601611833565b92505060206118b485828601611869565b9150509250929050565b600073ffffffffffffffffffffffffffffffffffffffff82169050919050565b60006118e9826118be565b9050919050565b6118f9816118de565b82525050565b600081519050919050565b600082825260208201905092915050565b60005b8381101561193957808201518184015260208101905061191e565b60008484015250505050565b6000601f19601f8301169050919050565b6000611961826118ff565b61196b818561190a565b935061197b81856020860161191b565b61198481611945565b840191505092915050565b61199881611848565b82525050565b60008115159050919050565b6119b38161199e565b82525050565b600060a0820190506119ce60008301886118f0565b81810360208301526119e08187611956565b90506119ef604083018661198f565b6119fc60608301856119aa565b611a09608083018461198f565b9695505050505050565b600060208284031215611a2957611a28611808565b5b6000611a3784828501611833565b91505092915050565b6000602082019050611a55600083018461198f565b92915050565b611a64816118de565b8114611a6f57600080fd5b50565b600081359050611a8181611a5b565b92915050565b60008060408385031215611a9e57611a9d611808565b5b6000611aac85828601611a72565b9250506020611abd85828601611869565b9150509250929050565b611ad081611812565b82525050565b6000602082019050611aeb6000830184611ac7565b92915050565b600080fd5b600080fd5b7f4e487b7100000000000000000000000000000000000000000000000000000000600052604160045260246000fd5b611b3382611945565b810181811067ffffffffffffffff82111715611b5257611b51611afb565b5b80604052505050565b6000611b656117fe565b9050611b718282611b2a565b919050565b600067ffffffffffffffff821115611b9157611b90611afb565b5b611b9a82611945565b9050602081019050919050565b82818337600083830152505050565b6000611bc9611bc484611b76565b611b5b565b905082815260208101848484011115611be557611be4611af6565b5b611bf0848285611ba7565b509392505050565b600082601f830112611c0d57611c0c611af1565b5b8135611c1d848260208601611bb6565b91505092915050565b60008060408385031215611c3d57611c3c611808565b5b6000611c4b85828601611833565b925050602083013567ffffffffffffffff811115611c6c57611c6b61180d565b5b611c7885828601611bf8565b9150509250929050565b600060208284031215611c9857611c97611808565b5b6000611ca684828501611a72565b91505092915050565b600081519050919050565b600082825260208201905092915050565b6000819050602082019050919050565b611ce481611812565b82525050565b6000611cf68383611cdb565b60208301905092915050565b6000602082019050919050565b6000611d1a82611caf565b611d248185611cba565b9350611d2f83611ccb565b8060005b83811015611d60578151611d478882611cea565b9750611d5283611d02565b925050600181019050611d33565b5085935050505092915050565b60006020820190508181036000830152611d878184611d0f565b905092915050565b6000602082019050611da460008301846118f0565b92915050565b60008060408385031215611dc157611dc0611808565b5b6000611dcf85828601611833565b9250506020611de085828601611a72565b9150509250929050565b6000602082019050611dff60008301846119aa565b92915050565b600060208284031215611e1b57611e1a611808565b5b6000611e2984828501611869565b91505092915050565b600060e082019050611e47600083018a6118f0565b8181036020830152611e598189611956565b90508181036040830152611e6d8188611956565b90508181036060830152611e818187611956565b9050611e90608083018661198f565b611e9d60a08301856119aa565b611eaa60c083018461198f565b98975050505050505050565b600080600060608486031215611ecf57611ece611808565b5b600084013567ffffffffffffffff811115611eed57611eec61180d565b5b611ef986828701611bf8565b935050602084013567ffffffffffffffff811115611f1a57611f1961180d565b5b611f2686828701611bf8565b925050604084013567ffffffffffffffff811115611f4757611f4661180d565b5b611f5386828701611bf8565b9150509250925092565b600081519050919050565b600082825260208201905092915050565b6000819050602082019050919050565b611f92816118de565b82525050565b600082825260208201905092915050565b6000611fb4826118ff565b611fbe8185611f98565b9350611fce81856020860161191b565b611fd781611945565b840191505092915050565b611feb81611848565b82525050565b611ffa8161199e565b82525050565b600060a0830160008301516120186000860182611f89565b50602083015184820360208601526120308282611fa9565b91505060408301516120456040860182611fe2565b5060608301516120586060860182611ff1565b50608083015161206b6080860182611fe2565b508091505092915050565b60006120828383612000565b905092915050565b6000602082019050919050565b60006120a282611f5d565b6120ac8185611f68565b9350836020820285016120be85611f79565b8060005b858110156120fa57848403895281516120db8582612076565b94506120e68361208a565b925060208a019950506001810190506120c2565b50829750879550505050505092915050565b600060208201905081810360008301526121268184612097565b905092915050565b7f4e487b7100000000000000000000000000000000000000000000000000000000600052602260045260246000fd5b6000600282049050600182168061217557607f821691505b6020821081036121885761218761212e565b5b50919050565b7f4f6e6c7920636f6e7472696275746f722063616e207265766f6b650000000000600082015250565b60006121c4601b8361190a565b91506121cf8261218e565b602082019050919050565b600060208201905081810360008301526121f3816121b7565b9050919050565b7f436f6e73656e74206e6f74206163746976650000000000000000000000000000600082015250565b600061223060128361190a565b915061223b826121fa565b602082019050919050565b6000602082019050818103600083015261225f81612223565b9050919050565b7f496e76616c696420636f6e73656e740000000000000000000000000000000000600082015250565b600061229c600f8361190a565b91506122a782612266565b602082019050919050565b600060208201905081810360008301526122cb8161228f565b9050919050565b7f4e487b7100000000000000000000000000000000000000000000000000000000600052601160045260246000fd5b600061230c82611848565b915061231783611848565b925082820190508082111561232f5761232e6122d2565b5b92915050565b60008190508160005260206000209050919050565b60006020601f8301049050919050565b600082821b905092915050565b6000600883026123977fffffffffffffffffffffffffffffffffffffffffffffffffffffffffffffffff8261235a565b6123a1868361235a565b95508019841693508086168417925050509392505050565b6000819050919050565b60006123de6123d96123d484611848565b6123b9565b611848565b9050919050565b6000819050919050565b6123f8836123c3565b61240c612404826123e5565b848454612367565b825550505050565b600090565b612421612414565b61242c8184846123ef565b505050565b5b8181101561245057612445600082612419565b600181019050612432565b5050565b601f8211156124955761246681612335565b61246f8461234a565b8101602085101561247e578190505b61249261248a8561234a565b830182612431565b50505b505050565b600082821c905092915050565b60006124b86000198460080261249a565b1980831691505092915050565b60006124d183836124a7565b9150826002028217905092915050565b6124ea826118ff565b67ffffffffffffffff81111561250357612502611afb565b5b61250d825461215d565b612518828285612454565b600060209050601f83116001811461254b5760008415612539578287015190505b61254385826124c5565b8655506125ab565b601f19841661255986612335565b60005b828110156125815784890151825560018201915060208501945060208101905061255c565b8683101561259e578489015161259a601f8916826124a7565b8355505b6001600288020188555050505b505050505050565b600060208201905081810360008301526125cd8184611956565b905092915050565b7f4f6e6c7920636f6e7472696275746f722063616e20617070726f766500000000600082015250565b600061260b601c8361190a565b9150612616826125d5565b602082019050919050565b6000602082019050818103600083015261263a816125fe565b9050919050565b7f4e487b7100000000000000000000000000000000000000000000000000000000600052603260045260246000fd5b7f416c726561647920617070726f76656400000000000000000000000000000000600082015250565b60006126a660108361190a565b91506126b182612670565b602082019050919050565b600060208201905081810360008301526126d581612699565b9050919050565b7f5265717565737420657870697265640000000000000000000000000000000000600082015250565b6000612712600f8361190a565b915061271d826126dc565b602082019050919050565b6000602082019050818103600083015261274181612705565b9050919050565b7f46656520746f6f20686967680000000000000000000000000000000000000000600082015250565b600061277e600c8361190a565b915061278982612748565b602082019050919050565b600060208201905081810360008301526127ad81612771565b9050919050565b7f4e6f7420617574686f72697a6564000000000000000000000000000000000000600082015250565b60006127ea600e8361190a565b91506127f5826127b4565b602082019050919050565b60006020820190508181036000830152612819816127dd565b9050919050565b600061282b82611848565b91507fffffffffffffffffffffffffffffffffffffffffffffffffffffffffffffffff820361285d5761285c6122d2565b5b600182019050919050565b7f4461746120686173682063616e6e6f7420626520656d70747900000000000000600082015250565b600061289e60198361190a565b91506128a982612868565b602082019050919050565b600060208201905081810360008301526128cd81612891565b9050919050565b7f4461746120747970652063616e6e6f7420626520656d70747900000000000000600082015250565b600061290a60198361190a565b9150612915826128d4565b602082019050919050565b60006020820190508181036000830152612939816128fd565b9050919050565b60008160601b9050919050565b600061295882612940565b9050919050565b600061296a8261294d565b9050919050565b61298261297d826118de565b61295f565b82525050565b600081905092915050565b600061299e826118ff565b6129a88185612988565b93506129b881856020860161191b565b80840191505092915050565b6000819050919050565b6129df6129da82611848565b6129c4565b82525050565b60006129f18287612971565b601482019150612a018286612993565b9150612a0d8285612993565b9150612a1982846129ce565b60208201915081905095945050505050565b7f4f776e61626c653a206e6577206f776e657220697320746865207a65726f206160008201527f6464726573730000000000000000000000000000000000000000000000000000602082015250565b6000612a8760268361190a565b9150612a9282612a2b565b604082019050919050565b60006020820190508181036000830152612ab681612a7a565b9050919050565b7f4f776e61626c653a2063616c6c6572206973206e6f7420746865206f776e6572600082015250565b6000612af360208361190a565b9150612afe82612abd565b602082019050919050565b60006020820190508181036000830152612b2281612ae6565b905091905056fea2646970667358221220ead5b102aeb93d256b8c39928283701ea5753302dea079d74c1ced218e34eec764736f6c63430008130033",
  "linkReferences": {},
  "deployedLinkReferences": {}
}