{
  "_format": "hh-sol-artifact-1",
  "contractName": "MedSynapseConsent",
  "sourceName": "contracts/MedSynapseConsent.sol",
  "abi": [
    {
      "inputs": [],
      "stateMutability": "nonpayable",
      "type": "constructor"
    },
    {
      "anonymous": false,
      "inputs": [
        {
          "indexed": true,
          "internalType": "bytes32",
          "name": "consentId",
          "type": "bytes32"
        },
        {
          "indexed": true,
          "internalType": "address",
          "name": "contributor",
          "type": "address"
        },
        {
          "indexed": false,
          "internalType": "string",
          "name": "dataHash",
          "type": "string"
        },
        {
          "indexed": false,
          "internalType": "string",
          "name": "dataType",
          "type": "string"
        },
        {
          "indexed": false,
          "internalType": "string",
          "name": "description",
          "type": "string"
        }
      ],
      "name": "ConsentCreated",
      "type": "event"
    },
    {
      "anonymous": false,
      "inputs": [
        {
          "indexed": true,
          "internalType": "bytes32",
          "name": "consentId",
          "type": "bytes32"
        },
        {
          "indexed": true,
          "internalType": "address",
          "name": "contributor",
          "type": "address"
        }
      ],
      "name": "ConsentRevoked",
      "type": "event"
    },
    {
      "anonymous": false,
      "inputs": [
        {
          "indexed": true,
          "internalType": "bytes32",
          "name": "consentId",
          "type": "bytes32"
        },
        {
          "indexed": true,
          "internalType": "address",
          "name": "researcher",
          "type": "address"
        },
        {
          "indexed": false,
          "internalType": "uint256",
          "name": "newAccessCount",
          "type": "uint256"
        }
      ],
      "name": "DataAccessed",
      "type": "event"
    },
    {
      "anonymous": false,
      "inputs": [
        {
          "indexed": true,
          "internalType": "address",
          "name": "previousOwner",
          "type": "address"
        },
        {
          "indexed": true,
          "internalType": "address",
          "name": "newOwner",
          "type": "address"
        }
      ],
      "name": "OwnershipTransferred",
      "type": "event"
    },
    {
      "anonymous": false,
      "inputs": [
        {
          "indexed": true,
          "internalType": "bytes32",
          "name": "consentId",
          "type": "bytes32"
        },
        {
          "indexed": true,
          "internalType": "address",
          "name": "researcher",
          "type": "address"
        }
      ],
      "name": "ResearchApproved",
      "type": "event"
    },
    {
      "anonymous": false,
      "inputs": [
        {
          "indexed": true,
          "internalType": "bytes32",
          "name": "consentId",
          "type": "bytes32"
        },
        {
          "indexed": true,
          "internalType": "address",
          "name": "researcher",
          "type": "address"
        },
        {
          "indexed": false,
          "internalType": "string",
          "name": "purpose",
          "type": "string"
        }
      ],
      "name": "ResearchRequested",
      "type": "event"
    },
    {
      "anonymous": false,
      "inputs": [
        {
          "indexed": true,
          "internalType": "address",
          "name": "contributor",
          "type": "address"
        },
        {
          "indexed": false,
          "internalType": "uint256",
          "name": "amount",
          "type": "uint256"
        }
      ],
      "name": "TokenRewardDistributed",
      "type": "event"
    },
    {
      "inputs": [
        {
          "internalType": "bytes32",
          "name": "_consentId",
          "type": "bytes32"
        },
        {
          "internalType": "uint256",
          "name": "_requestIndex",
          "type": "uint256"
        }
      ],
      "name": "approveResearchRequest",
      "outputs": [],
      "stateMutability": "nonpayable",
      "type": "function"
    },
    {
      "inputs": [
        {
          "internalType": "bytes32",
          "name": "",
          "type": "bytes32"
        }
      ],
      "name": "consents",
      "outputs": [
        {
          "internalType": "address",
          "name": "contributor",
          "type": "address"
        },
        {
          "internalType": "string",
          "name": "dataHash",
          "type": "string"
        },
        {
          "internalType": "string",
          "name": "dataType",
          "type": "string"
        },
        {
          "internalType": "string",
          "name": "description",
          "type": "string"
        },
        {
          "internalType": "uint256",
          "name": "timestamp",
          "type": "uint256"
        },
        {
          "internalType": "bool",
          "name": "isActive",
          "type": "bool"
        },
        {
          "internalType": "uint256",
          "name": "accessCount",
          "type": "uint256"
        }
      ],
      "stateMutability": "view",
      "type": "function"
    },
    {
      "inputs": [
        {
          "internalType": "address",
          "name": "",
          "type": "address"
        },
        {
          "internalType": "uint256",
          "name": "",
          "type": "uint256"
        }
      ],
      "name": "contributorConsents",
      "outputs": [
        {
          "internalType": "bytes32",
          "name": "",
          "type": "bytes32"
        }
      ],
      "stateMutability": "view",
      "type": "function"
    },
    {
      "inputs": [
        {
          "internalType": "string",
          "name": "_dataHash",
          "type": "string"
        },
        {
          "internalType": "string",
          "name": "_dataType",
          "type": "string"
        },
        {
          "internalType": "string",
          "name": "_description",
          "type": "string"
        }
      ],
      "name": "createConsent",
      "outputs": [
        {
          "internalType": "bytes32",
          "name": "",
          "type": "bytes32"
        }
      ],
      "stateMutability": "nonpayable",
      "type": "function"
    },
    {
      "inputs": [],
      "name": "feePercentage",
      "outputs": [
        {
          "internalType": "uint256",
          "name": "",
          "type": "uint256"
        }
      ],
      "stateMutability": "view",
      "type": "function"
    },
    {
      "inputs": [
        {
          "internalType": "bytes32",
          "name": "_consentId",
          "type": "bytes32"
        }
      ],
      "name": "getConsentInfo",
      "outputs": [
        {
          "internalType": "address",
          "name": "contributor",
          "type": "address"
        },
        {
          "internalType": "string",
          "name": "dataHash",
          "type": "string"
        },
        {
          "internalType": "string",
          "name": "dataType",
          "type": "string"
        },
        {
          "internalType": "string",
          "name": "description",
          "type": "string"
        },
        {
          "internalType": "uint256",
          "name": "timestamp",
          "type": "uint256"
        },
        {
          "internalType": "bool",
          "name": "isActive",
          "type": "bool"
        },
        {
          "internalType": "uint256",
          "name": "accessCount",
          "type": "uint256"
        }
      ],
      "stateMutability": "view",
      "type": "function"
    },
    {
      "inputs": [
        {
          "internalType": "address",
          "name": "_contributor",
          "type": "address"
        }
      ],
      "name": "getContributorConsents",
      "outputs": [
        {
          "internalType": "bytes32[]",
          "name": "",
          "type": "bytes32[]"
        }
      ],
      "stateMutability": "view",
      "type": "function"
    },
    {
      "inputs": [
        {
          "internalType": "bytes32",
          "name": "_consentId",
          "type": "bytes32"
        }
      ],
      "name": "getResearchRequests",
      "outputs": [
        {
          "components": [
            {
              "internalType": "address",
              "name": "researcher",
              "type": "address"
            },
            {
              "internalType": "string",
              "name": "purpose",
              "type": "string"
            },
            {
              "internalType": "uint256",
              "name": "requestedAt",
              "type": "uint256"
            },
            {
              "internalType": "bool",
              "name": "approved",
              "type": "bool"
            },
            {
              "internalType": "uint256",
              "name": "expiresAt",
              "type": "uint256"
            }
          ],
          "internalType": "struct MedSynapseConsent.ResearchRequest[]",
          "name": "",
          "type": "tuple[]"
        }
      ],
      "stateMutability": "view",
      "type": "function"
    },
    {
      "inputs": [],
      "name": "getTokenAddress",
      "outputs": [
        {
          "internalType": "address",
          "name": "",
          "type": "address"
        }
      ],
      "stateMutability": "view",
      "type": "function"
    },
    {
      "inputs": [
        {
          "internalType": "bytes32",
          "name": "_consentId",
          "type": "bytes32"
        },
        {
          "internalType": "address",
          "name": "_researcher",
          "type": "address"
        }
      ],
      "name": "isAuthorized",
      "outputs": [
        {
          "internalType": "bool",
          "name": "",
          "type": "bool"
        }
      ],
      "stateMutability": "view",
      "type": "function"
    },
    {
      "inputs": [],
      "name": "medSynapseToken",
      "outputs": [
        {
          "internalType": "contract IMedSynapseToken",
          "name": "",
          "type": "address"
        }
      ],
      "stateMutability": "view",
      "type": "function"
    },
    {
      "inputs": [],
      "name": "owner",
      "outputs": [
        {
          "internalType": "address",
          "name": "",
          "type": "address"
        }
      ],
      "stateMutability": "view",
      "type": "function"
    },
    {
      "inputs": [
        {
          "internalType": "bytes32",
          "name": "_consentId",
          "type": "bytes32"
        }
      ],
      "name": "recordDataAccess",
      "outputs": [],
      "stateMutability": "nonpayable",
      "type": "function"
    },
    {
      "inputs": [],
      "name": "renounceOwnership",
      "outputs": [],
      "stateMutability": "nonpayable",
      "type": "function"
    },
    {
      "inputs": [
        {
          "internalType": "bytes32",
          "name": "_consentId",
          "type": "bytes32"
        },
        {
          "internalType": "string",
          "name": "_purpose",
          "type": "string"
        }
      ],
      "name": "requestDataAccess",
      "outputs": [],
      "stateMutability": "nonpayable",
      "type": "function"
    },
    {
      "inputs": [
        {
          "internalType": "bytes32",
          "name": "",
          "type": "bytes32"
        },
        {
          "internalType": "uint256",
          "name": "",
          "type": "uint256"
        }
      ],
      "name": "researchRequests",
      "outputs": [
        {
          "internalType": "address",
          "name": "researcher",
          "type": "address"
        },
        {
          "internalType": "string",
          "name": "purpose",
          "type": "string"
        },
        {
          "internalType": "uint256",
          "name": "requestedAt",
          "type": "uint256"
        },
        {
          "internalType": "bool",
          "name": "approved",
          "type": "bool"
        },
        {
          "internalType": "uint256",
          "name": "expiresAt",
          "type": "uint256"
        }
      ],
      "stateMutability": "view",
      "type": "function"
    },
    {
      "inputs": [
        {
          "internalType": "bytes32",
          "name": "_consentId",
          "type": "bytes32"
        }
      ],
      "name": "revokeConsent",
      "outputs": [],
      "stateMutability": "nonpayable",
      "type": "function"
    },
    {
      "inputs": [
        {
          "internalType": "uint256",
          "name": "_newFee",
          "type": "uint256"
        }
      ],
      "name": "setFeePercentage",
      "outputs": [],
      "stateMutability": "nonpayable",
      "type": "function"
    },
    {
      "inputs": [
        {
          "internalType": "address",
          "name": "_tokenAddress",
          "type": "address"
        }
      ],
      "name": "setMedSynapseToken",
      "outputs": [],
      "stateMutability": "nonpayable",
      "type": "function"
    },
    {
      "inputs": [
        {
          "internalType": "bool",
          "name": "_enabled",
          "type": "bool"
        }
      ],
      "name": "setTokenRewardsEnabled",
      "outputs": [],
      "stateMutability": "nonpayable",
      "type": "function"
    },
    {
      "inputs": [],
      "name": "tokenRewardsEnabled",
      "outputs": [
        {
          "internalType": "bool",
          "name": "",
          "type": "bool"
        }
      ],
      "stateMutability": "view",
      "type": "function"
    },
    {
      "inputs": [],
      "name": "totalConsents",
      "outputs": [
        {
          "internalType": "uint256",
          "name": "",
          "type": "uint256"
        }
      ],
      "stateMutability": "view",
      "type": "function"
    },
    {
      "inputs": [
        {
          "internalType": "address",
          "name": "newOwner",
          "type": "address"
        }
      ],
      "name": "transferOwnership",
      "outputs": [],
      "stateMutability": "nonpayable",
      "type": "function"
    }
  ],
  "bytecode": "0x608060405260056006556001600760146101000a81548160ff0219169083151502179055503480156200003157600080fd5b5062000052620000466200005f60201b60201c565b6200006760201b60201c565b600180819055506200012b565b600033905090565b60008060009054906101000a900473ffffffffffffffffffffffffffffffffffffffff169050816000806101000a81548173ffffffffffffffffffffffffffffffffffffffff021916908373ffffffffffffffffffffffffffffffffffffffff1602179055508173ffffffffffffffffffffffffffffffffffffffff168173ffffffffffffffffffffffffffffffffffffffff167f8be0079c531659141344cd1fd0a4f28419497f9722a3daafe3b4186f6b6457e060405160405180910390a35050565b613043806200013b6000396000f3fe608060405234801561001057600080fd5b506004361061014c5760003560e01c80638bd7dac2116100c3578063b3d8ccbd1161007c578063b3d8ccbd1461037b578063e99b2fd5146103b1578063ec1ec69a146103cd578063f229813f14610403578063f2fde38b14610433578063fa7cbb7d1461044f5761014c565b80638bd7dac2146102a75780638d203ea4146102d75780638da5cb5b146102f3578063956db46514610311578063a001ecdd14610341578063ae06c1b71461035f5761014c565b806337cb94aa1161011557806337cb94aa1461020d578063429d15ee146102295780634d3e7aff146102455780636a55252f14610263578063715018a614610281578063892db3e21461028b5761014c565b8062aaa3e81461015157806307a0315d1461018557806310fe9ae8146101a157806329c93175146101bf57806335bc4050146101dd575b600080fd5b61016b60048036038101906101669190611bc7565b61047f565b60405161017c959493929190611d02565b60405180910390f35b61019f600480360381019061019a9190611d5c565b610587565b005b6101a9610695565b6040516101b69190611d89565b60405180910390f35b6101c76106bf565b6040516101d49190611da4565b60405180910390f35b6101f760048036038101906101f29190611deb565b6106c5565b6040516102049190611e3a565b60405180910390f35b61022760048036038101906102229190611f8a565b6106f6565b005b610243600480360381019061023e9190611bc7565b610974565b005b61024d610c46565b60405161025a9190611fe6565b60405180910390f35b61026b610c59565b6040516102789190612060565b60405180910390f35b610289610c7f565b005b6102a560048036038101906102a0919061207b565b610c93565b005b6102c160048036038101906102bc919061207b565b610cdf565b6040516102ce9190612166565b60405180910390f35b6102f160048036038101906102ec91906121b4565b610d76565b005b6102fb610d9b565b6040516103089190611d89565b60405180910390f35b61032b600480360381019061032691906121e1565b610dc4565b6040516103389190611fe6565b60405180910390f35b610349610e4e565b6040516103569190611da4565b60405180910390f35b61037960048036038101906103749190612221565b610e54565b005b61039560048036038101906103909190611d5c565b610eaa565b6040516103a8979695949392919061224e565b60405180910390f35b6103cb60048036038101906103c69190611d5c565b6110b1565b005b6103e760048036038101906103e29190611d5c565b611218565b6040516103fa979695949392919061224e565b60405180910390f35b61041d600480360381019061041891906122d2565b611445565b60405161042a9190611e3a565b60405180910390f35b61044d6004803603810190610448919061207b565b6117f1565b005b61046960048036038101906104649190611d5c565b611874565b6040516104769190612528565b60405180910390f35b6004602052816000526040600020818154811061049b57600080fd5b9060005260206000209060050201600091509150508060000160009054906101000a900473ffffffffffffffffffffffffffffffffffffffff16908060010180546104e590612579565b80601f016020809104026020016040519081016040528092919081815260200182805461051190612579565b801561055e5780601f106105335761010080835404028352916020019161055e565b820191906000526020600020905b81548152906001019060200180831161054157829003601f168201915b5050505050908060020154908060030160009054906101000a900460ff16908060040154905085565b60006002600083815260200190815260200160002090503373ffffffffffffffffffffffffffffffffffffffff168160000160009054906101000a900473ffffffffffffffffffffffffffffffffffffffff1673ffffffffffffffffffffffffffffffffffffffff1614610630576040517f08c379a0000000000000000000000000000000000000000000000000000000008152600401610627906125f6565b60405180910390fd5b60008160050160006101000a81548160ff0219169083151502179055503373ffffffffffffffffffffffffffffffffffffffff16827f3e0efaa01c6564bd2b44271408ee50f33954c939781c9f86a2e12eccf1371da460405160405180910390a35050565b6000600760009054906101000a900473ffffffffffffffffffffffffffffffffffffffff16905090565b60055481565b600360205281600052604060002081815481106106e157600080fd5b90600052602060002001600091509150505481565b6002600083815260200190815260200160002060050160009054906101000a900460ff16610759576040517f08c379a000000000000000000000000000000000000000000000000000000000815260040161075090612662565b60405180910390fd5b600073ffffffffffffffffffffffffffffffffffffffff166002600084815260200190815260200160002060000160009054906101000a900473ffffffffffffffffffffffffffffffffffffffff1673ffffffffffffffffffffffffffffffffffffffff16036107fe576040517f08c379a00000000000000000000000000000000000000000000000000000000081526004016107f5906126ce565b60405180910390fd5b60006040518060a001604052803373ffffffffffffffffffffffffffffffffffffffff16815260200183815260200142815260200160001515815260200162278d004261084b919061271d565b81525090506004600084815260200190815260200160002081908060018154018082558091505060019003906000526020600020906005020160009091909190915060008201518160000160006101000a81548173ffffffffffffffffffffffffffffffffffffffff021916908373ffffffffffffffffffffffffffffffffffffffff16021790555060208201518160010190816108e991906128f3565b506040820151816002015560608201518160030160006101000a81548160ff0219169083151502179055506080820151816004015550503373ffffffffffffffffffffffffffffffffffffffff16837f0d31edc4a2d7af599cd021961d968e50ece0e7793461e3ede47eafa49dd1b45a8460405161096791906129c5565b60405180910390a3505050565b60006002600084815260200190815260200160002090503373ffffffffffffffffffffffffffffffffffffffff168160000160009054906101000a900473ffffffffffffffffffffffffffffffffffffffff1673ffffffffffffffffffffffffffffffffffffffff1614610a1d576040517f08c379a0000000000000000000000000000000000000000000000000000000008152600401610a1490612a33565b60405180910390fd5b8060050160009054906101000a900460ff16610a6e576040517f08c379a0000000000000000000000000000000000000000000000000000000008152600401610a6590612662565b60405180910390fd5b6000600460008581526020019081526020016000208381548110610a9557610a94612a53565b5b906000526020600020906005020190508060030160009054906101000a900460ff1615610af7576040517f08c379a0000000000000000000000000000000000000000000000000000000008152600401610aee90612ace565b60405180910390fd5b42816004015411610b3d576040517f08c379a0000000000000000000000000000000000000000000000000000000008152600401610b3490612b3a565b60405180910390fd5b60018160030160006101000a81548160ff02191690831515021790555060018260070160008360000160009054906101000a900473ffffffffffffffffffffffffffffffffffffffff1673ffffffffffffffffffffffffffffffffffffffff1673ffffffffffffffffffffffffffffffffffffffff16815260200190815260200160002060006101000a81548160ff0219169083151502179055508060000160009054906101000a900473ffffffffffffffffffffffffffffffffffffffff1673ffffffffffffffffffffffffffffffffffffffff16847f7a29f5abc8c6e97c4ba32488d06f6be5bc338c5aff4621e464c1e55285dacebe60405160405180910390a350505050565b600760149054906101000a900460ff1681565b600760009054906101000a900473ffffffffffffffffffffffffffffffffffffffff1681565b610c876119fd565b610c916000611a7b565b565b610c9b6119fd565b80600760006101000a81548173ffffffffffffffffffffffffffffffffffffffff021916908373ffffffffffffffffffffffffffffffffffffffff16021790555050565b6060600360008373ffffffffffffffffffffffffffffffffffffffff1673ffffffffffffffffffffffffffffffffffffffff168152602001908152602001600020805480602002602001604051908101604052809291908181526020018280548015610d6a57602002820191906000526020600020905b815481526020019060010190808311610d56575b50505050509050919050565b610d7e6119fd565b80600760146101000a81548160ff02191690831515021790555050565b60008060009054906101000a900473ffffffffffffffffffffffffffffffffffffffff16905090565b6000806002600085815260200190815260200160002090508060050160009054906101000a900460ff168015610e4557508060070160008473ffffffffffffffffffffffffffffffffffffffff1673ffffffffffffffffffffffffffffffffffffffff16815260200190815260200160002060009054906101000a900460ff165b91505092915050565b60065481565b610e5c6119fd565b600a811115610ea0576040517f08c379a0000000000000000000000000000000000000000000000000000000008152600401610e9790612ba6565b60405180910390fd5b8060068190555050565b60026020528060005260406000206000915090508060000160009054906101000a900473ffffffffffffffffffffffffffffffffffffffff1690806001018054610ef390612579565b80601f0160208091040260200160405190810160405280929190818152602001828054610f1f90612579565b8015610f6c5780601f10610f4157610100808354040283529160200191610f6c565b820191906000526020600020905b815481529060010190602001808311610f4f57829003601f168201915b505050505090806002018054610f8190612579565b80601f0160208091040260200160405190810160405280929190818152602001828054610fad90612579565b8015610ffa5780601f10610fcf57610100808354040283529160200191610ffa565b820191906000526020600020905b815481529060010190602001808311610fdd57829003601f168201915b50505050509080600301805461100f90612579565b80601f016020809104026020016040519081016040528092919081815260200182805461103b90612579565b80156110885780601f1061105d57610100808354040283529160200191611088565b820191906000526020600020905b81548152906001019060200180831161106b57829003601f168201915b5050505050908060040154908060050160009054906101000a900460ff16908060060154905087565b60006002600083815260200190815260200160002090508060050160009054906101000a900460ff16611119576040517f08c379a000000000000000000000000000000000000000000000000000000000815260040161111090612662565b60405180910390fd5b8060070160003373ffffffffffffffffffffffffffffffffffffffff1673ffffffffffffffffffffffffffffffffffffffff16815260200190815260200160002060009054906101000a900460ff166111a7576040517f08c379a000000000000000000000000000000000000000000000000000000000815260040161119e90612c12565b60405180910390fd5b8060060160008154809291906111bc90612c32565b91905055503373ffffffffffffffffffffffffffffffffffffffff16827f554e51ea234d304e78671e3aa226c22e05c12b17c32df0b342cfe6eb886d46f7836006015460405161120c9190611da4565b60405180910390a35050565b60006060806060600080600080600260008a815260200190815260200160002090508060000160009054906101000a900473ffffffffffffffffffffffffffffffffffffffff1681600101826002018360030184600401548560050160009054906101000a900460ff16866006015485805461129390612579565b80601f01602080910402602001604051908101604052809291908181526020018280546112bf90612579565b801561130c5780601f106112e15761010080835404028352916020019161130c565b820191906000526020600020905b8154815290600101906020018083116112ef57829003601f168201915b5050505050955084805461131f90612579565b80601f016020809104026020016040519081016040528092919081815260200182805461134b90612579565b80156113985780601f1061136d57610100808354040283529160200191611398565b820191906000526020600020905b81548152906001019060200180831161137b57829003601f168201915b505050505094508380546113ab90612579565b80601f01602080910402602001604051908101604052809291908181526020018280546113d790612579565b80156114245780601f106113f957610100808354040283529160200191611424565b820191906000526020600020905b81548152906001019060200180831161140757829003601f168201915b50505050509350975097509750975097509750975050919395979092949650565b60008084511161148a576040517f08c379a000000000000000000000000000000000000000000000000000000000815260040161148190612cc6565b60405180910390fd5b60008351116114ce576040517f08c379a00000000000000000000000000000000000000000000000000000000081526004016114c590612d32565b60405180910390fd5b6000338585426040516020016114e79493929190612df7565b6040516020818303038152906040528051906020012090506000600260008381526020019081526020016000209050338160000160006101000a81548173ffffffffffffffffffffffffffffffffffffffff021916908373ffffffffffffffffffffffffffffffffffffffff1602179055508581600101908161156a91906128f3565b508481600201908161157c91906128f3565b508381600301908161158e91906128f3565b5042816004018190555060018160050160006101000a81548160ff02191690831515021790555060008160060181905550600360003373ffffffffffffffffffffffffffffffffffffffff1673ffffffffffffffffffffffffffffffffffffffff1681526020019081526020016000208290806001815401808255809150506001900390600052602060002001600090919091909150556005600081548092919061163890612c32565b9190505550600760149054906101000a900460ff1680156116a85750600073ffffffffffffffffffffffffffffffffffffffff16600760009054906101000a900473ffffffffffffffffffffffffffffffffffffffff1673ffffffffffffffffffffffffffffffffffffffff1614155b1561179257600760009054906101000a900473ffffffffffffffffffffffffffffffffffffffff1673ffffffffffffffffffffffffffffffffffffffff16633c87a97033886040518363ffffffff1660e01b815260040161170a929190612e3d565b600060405180830381600087803b15801561172457600080fd5b505af1925050508015611735575060015b15611791573373ffffffffffffffffffffffffffffffffffffffff167f3a61002c22cbb65a422dd1ac3eeb6a3e7dfeb7cecd08256ac857e5dc18b5b3e3678ac7230489e800006040516117889190612ea8565b60405180910390a25b5b3373ffffffffffffffffffffffffffffffffffffffff16827f6401399949561ab1e19267a5d55a3694ec30f654202cc2ba494d0119ffe62a5d8888886040516117dd93929190612ec3565b60405180910390a381925050509392505050565b6117f96119fd565b600073ffffffffffffffffffffffffffffffffffffffff168173ffffffffffffffffffffffffffffffffffffffff1603611868576040517f08c379a000000000000000000000000000000000000000000000000000000000815260040161185f90612f81565b60405180910390fd5b61187181611a7b565b50565b606060046000838152602001908152602001600020805480602002602001604051908101604052809291908181526020016000905b828210156119f257838290600052602060002090600502016040518060a00160405290816000820160009054906101000a900473ffffffffffffffffffffffffffffffffffffffff1673ffffffffffffffffffffffffffffffffffffffff1673ffffffffffffffffffffffffffffffffffffffff16815260200160018201805461193290612579565b80601f016020809104026020016040519081016040528092919081815260200182805461195e90612579565b80156119ab5780601f10611980576101008083540402835291602001916119ab565b820191906000526020600020905b81548152906001019060200180831161198e57829003601f168201915b50505050508152602001600282015481526020016003820160009054906101000a900460ff16151515158152602001600482015481525050815260200190600101906118a9565b505050509050919050565b611a05611b3f565b73ffffffffffffffffffffffffffffffffffffffff16611a23610d9b565b73ffffffffffffffffffffffffffffffffffffffff1614611a79576040517f08c379a0000000000000000000000000000000000000000000000000000000008152600401611a7090612fed565b60405180910390fd5b565b60008060009054906101000a900473ffffffffffffffffffffffffffffffffffffffff169050816000806101000a81548173ffffffffffffffffffffffffffffffffffffffff021916908373ffffffffffffffffffffffffffffffffffffffff1602179055508173ffffffffffffffffffffffffffffffffffffffff168173ffffffffffffffffffffffffffffffffffffffff167f8be0079c531659141344cd1fd0a4f28419497f9722a3daafe3b4186f6b6457e060405160405180910390a35050565b600033905090565b6000604051905090565b600080fd5b600080fd5b6000819050919050565b611b6e81611b5b565b8114611b7957600080fd5b50565b600081359050611b8b81611b65565b92915050565b6000819050919050565b611ba481611b91565b8114611baf57600080fd5b50565b600081359050611bc181611b9b565b92915050565b60008060408385031215611bde57611bdd611b51565b5b6000611bec85828601611b7c565b9250506020611bfd85828601611bb2565b9150509250929050565b600073ffffffffffffffffffffffffffffffffffffffff82169050919050565b6000611c3282611c07565b9050919050565b611c4281611c27565b82525050565b600081519050919050565b600082825260208201905092915050565b60005b83811015611c82578082015181840152602081019050611c67565b60008484015250505050565b6000601f19601f8301169050919050565b6000611caa82611c48565b611cb48185611c53565b9350611cc4818560208601611c64565b611ccd81611c8e565b840191505092915050565b611ce181611b91565b82525050565b60008115159050919050565b611cfc81611ce7565b82525050565b600060a082019050611d176000830188611c39565b8181036020830152611d298187611c9f565b9050611d386040830186611cd8565b611d456060830185611cf3565b611d526080830184611cd8565b9695505050505050565b600060208284031215611d7257611d71611b51565b5b6000611d8084828501611b7c565b91505092915050565b6000602082019050611d9e6000830184611c39565b92915050565b6000602082019050611db96000830184611cd8565b92915050565b611dc881611c27565b8114611dd357600080fd5b50565b600081359050611de581611dbf565b92915050565b60008060408385031215611e0257611e01611b51565b5b6000611e1085828601611dd6565b9250506020611e2185828601611bb2565b9150509250929050565b611e3481611b5b565b82525050565b6000602082019050611e4f6000830184611e2b565b92915050565b600080fd5b600080fd5b7f4e487b7100000000000000000000000000000000000000000000000000000000600052604160045260246000fd5b611e9782611c8e565b810181811067ffffffffffffffff82111715611eb657611eb5611e5f565b5b80604052505050565b6000611ec9611b47565b9050611ed58282611e8e565b919050565b600067ffffffffffffffff821115611ef557611ef4611e5f565b5b611efe82611c8e565b9050602081019050919050565b82818337600083830152505050565b6000611f2d611f2884611eda565b611ebf565b905082815260208101848484011115611f4957611f48611e5a565b5b611f54848285611f0b565b509392505050565b600082601f830112611f7157611f70611e55565b5b8135611f81848260208601611f1a565b91505092915050565b60008060408385031215611fa157611fa0611b51565b5b6000611faf85828601611b7c565b925050602083013567ffffffffffffffff811115611fd057611fcf611b56565b5b611fdc85828601611f5c565b9150509250929050565b6000602082019050611ffb6000830184611cf3565b92915050565b6000819050919050565b600061202661202161201c84611c07565b612001565b611c07565b9050919050565b60006120388261200b565b9050919050565b600061204a8261202d565b9050919050565b61205a8161203f565b82525050565b60006020820190506120756000830184612051565b92915050565b60006020828403121561209157612090611b51565b5b600061209f84828501611dd6565b91505092915050565b600081519050919050565b600082825260208201905092915050565b6000819050602082019050919050565b6120dd81611b5b565b82525050565b60006120ef83836120d4565b60208301905092915050565b6000602082019050919050565b6000612113826120a8565b61211d81856120b3565b9350612128836120c4565b8060005b8381101561215957815161214088826120e3565b975061214b836120fb565b92505060018101905061212c565b5085935050505092915050565b600060208201905081810360008301526121808184612108565b905092915050565b61219181611ce7565b811461219c57600080fd5b50565b6000813590506121ae81612188565b92915050565b6000602082840312156121ca576121c9611b51565b5b60006121d88482850161219f565b91505092915050565b600080604083850312156121f8576121f7611b51565b5b600061220685828601611b7c565b925050602061221785828601611dd6565b9150509250929050565b60006020828403121561223757612236611b51565b5b600061224584828501611bb2565b91505092915050565b600060e082019050612263600083018a611c39565b81810360208301526122758189611c9f565b905081810360408301526122898188611c9f565b9050818103606083015261229d8187611c9f565b90506122ac6080830186611cd8565b6122b960a0830185611cf3565b6122c660c0830184611cd8565b98975050505050505050565b6000806000606084860312156122eb576122ea611b51565b5b600084013567ffffffffffffffff81111561230957612308611b56565b5b61231586828701611f5c565b935050602084013567ffffffffffffffff81111561233657612335611b56565b5b61234286828701611f5c565b925050604084013567ffffffffffffffff81111561236357612362611b56565b5b61236f86828701611f5c565b9150509250925092565b600081519050919050565b600082825260208201905092915050565b6000819050602082019050919050565b6123ae81611c27565b82525050565b600082825260208201905092915050565b60006123d082611c48565b6123da81856123b4565b93506123ea818560208601611c64565b6123f381611c8e565b840191505092915050565b61240781611b91565b82525050565b61241681611ce7565b82525050565b600060a08301600083015161243460008601826123a5565b506020830151848203602086015261244c82826123c5565b915050604083015161246160408601826123fe565b506060830151612474606086018261240d565b50608083015161248760808601826123fe565b508091505092915050565b600061249e838361241c565b905092915050565b6000602082019050919050565b60006124be82612379565b6124c88185612384565b9350836020820285016124da85612395565b8060005b8581101561251657848403895281516124f78582612492565b9450612502836124a6565b925060208a019950506001810190506124de565b50829750879550505050505092915050565b6000602082019050818103600083015261254281846124b3565b905092915050565b7f4e487b7100000000000000000000000000000000000000000000000000000000600052602260045260246000fd5b6000600282049050600182168061259157607f821691505b6020821081036125a4576125a361254a565b5b50919050565b7f4f6e6c7920636f6e7472696275746f722063616e207265766f6b650000000000600082015250565b60006125e0601b83611c53565b91506125eb826125aa565b602082019050919050565b6000602082019050818103600083015261260f816125d3565b9050919050565b7f436f6e73656e74206e6f74206163746976650000000000000000000000000000600082015250565b600061264c601283611c53565b915061265782612616565b602082019050919050565b6000602082019050818103600083015261267b8161263f565b9050919050565b7f496e76616c696420636f6e73656e740000000000000000000000000000000000600082015250565b60006126b8600f83611c53565b91506126c382612682565b602082019050919050565b600060208201905081810360008301526126e7816126ab565b9050919050565b7f4e487b7100000000000000000000000000000000000000000000000000000000600052601160045260246000fd5b600061272882611b91565b915061273383611b91565b925082820190508082111561274b5761274a6126ee565b5b92915050565b60008190508160005260206000209050919050565b60006020601f8301049050919050565b600082821b905092915050565b6000600883026127b37fffffffffffffffffffffffffffffffffffffffffffffffffffffffffffffffff82612776565b6127bd8683612776565b95508019841693508086168417925050509392505050565b60006127f06127eb6127e684611b91565b612001565b611b91565b9050919050565b6000819050919050565b61280a836127d5565b61281e612816826127f7565b848454612783565b825550505050565b600090565b612833612826565b61283e818484612801565b505050565b5b818110156128625761285760008261282b565b600181019050612844565b5050565b601f8211156128a75761287881612751565b61288184612766565b81016020851015612890578190505b6128a461289c85612766565b830182612843565b50505b505050565b600082821c905092915050565b60006128ca600019846008026128ac565b1980831691505092915050565b60006128e383836128b9565b9150826002028217905092915050565b6128fc82611c48565b67ffffffffffffffff81111561291557612914611e5f565b5b61291f8254612579565b61292a828285612866565b600060209050601f83116001811461295d576000841561294b578287015190505b61295585826128d7565b8655506129bd565b601f19841661296b86612751565b60005b828110156129935784890151825560018201915060208501945060208101905061296e565b868310156129b057848901516129ac601f8916826128b9565b8355505b6001600288020188555050505b505050505050565b600060208201905081810360008301526129df8184611c9f565b905092915050565b7f4f6e6c7920636f6e7472696275746f722063616e20617070726f766500000000600082015250565b6000612a1d601c83611c53565b9150612a28826129e7565b602082019050919050565b60006020820190508181036000830152612a4c81612a10565b9050919050565b7f4e487b7100000000000000000000000000000000000000000000000000000000600052603260045260246000fd5b7f416c726561647920617070726f76656400000000000000000000000000000000600082015250565b6000612ab8601083611c53565b9150612ac382612a82565b602082019050919050565b60006020820190508181036000830152612ae781612aab565b9050919050565b7f5265717565737420657870697265640000000000000000000000000000000000600082015250565b6000612b24600f83611c53565b9150612b2f82612aee565b602082019050919050565b60006020820190508181036000830152612b5381612b17565b9050919050565b7f46656520746f6f20686967680000000000000000000000000000000000000000600082015250565b6000612b90600c83611c53565b9150612b9b82612b5a565b602082019050919050565b60006020820190508181036000830152612bbf81612b83565b9050919050565b7f4e6f7420617574686f72697a6564000000000000000000000000000000000000600082015250565b6000612bfc600e83611c53565b9150612c0782612bc6565b602082019050919050565b60006020820190508181036000830152612c2b81612bef565b9050919050565b6000612c3d82611b91565b91507fffffffffffffffffffffffffffffffffffffffffffffffffffffffffffffffff8203612c6f57612c6e6126ee565b5b600182019050919050565b7f4461746120686173682063616e6e6f7420626520656d70747900000000000000600082015250565b6000612cb0601983611c53565b9150612cbb82612c7a565b602082019050919050565b60006020820190508181036000830152612cdf81612ca3565b9050919050565b7f4461746120747970652063616e6e6f7420626520656d70747900000000000000600082015250565b6000612d1c601983611c53565b9150612d2782612ce6565b602082019050919050565b60006020820190508181036000830152612d4b81612d0f565b9050919050565b60008160601b9050919050565b6000612d6a82612d52565b9050919050565b6000612d7c82612d5f565b9050919050565b612d94612d8f82611c27565b612d71565b82525050565b600081905092915050565b6000612db082611c48565b612dba8185612d9a565b9350612dca818560208601611c64565b80840191505092915050565b6000819050919050565b612df1612dec82611b91565b612dd6565b82525050565b6000612e038287612d83565b601482019150612e138286612da5565b9150612e1f8285612da5565b9150612e2b8284612de0565b60208201915081905095945050505050565b6000604082019050612e526000830185611c39565b8181036020830152612e648184611c9f565b90509392505050565b6000819050919050565b6000612e92612e8d612e8884612e6d565b612001565b611b91565b9050919050565b612ea281612e77565b82525050565b6000602082019050612ebd6000830184612e99565b92915050565b60006060820190508181036000830152612edd8186611c9f565b90508181036020830152612ef18185611c9f565b90508181036040830152612f058184611c9f565b9050949350505050565b7f4f776e61626c653a206e6577206f776e657220697320746865207a65726f206160008201527f6464726573730000000000000000000000000000000000000000000000000000602082015250565b6000612f6b602683611c53565b9150612f7682612f0f565b604082019050919050565b60006020820190508181036000830152612f9a81612f5e565b9050919050565b7f4f776e61626c653a2063616c6c6572206973206e6f7420746865206f776e6572600082015250565b6000612fd7602083611c53565b9150612fe282612fa1565b602082019050919050565b6000602082019050818103600083015261300681612fca565b905091905056fea2646970667358221220e38fec4115d05d9fe1b27acd9c879ebc5b17b4f42787040989cc02a6f2693c2864736f6c63430008130033",
  "linkReferences": {},
  "deployedLinkReferences": {}
}