{
  "_format": "hh-sol-artifact-1",
  "contractName": "DataValidator",
  "sourceName": "contracts/DataValidator.sol",
  "abi": [
    {
      "inputs": [],
      "stateMutability": "nonpayable",
      "type": "constructor"
    },
    {
      "inputs": [
        {
          "internalType": "string",
          "name": "_dataType",
          "type": "string"
        }
      ],
      "name": "addSupportedDataType",
      "outputs": [],
      "stateMutability": "nonpayable",
      "type": "function"
    },
    {
      "inputs": [
        {
          "internalType": "string",
          "name": "_dataType",
          "type": "string"
        }
      ],
      "name": "isValidDataType",
      "outputs": [
        {
          "internalType": "bool",
          "name": "",
          "type": "bool"
        }
      ],
      "stateMutability": "view",
      "type": "function"
    },
    {
      "inputs": [
        {
          "internalType": "string",
          "name": "",
          "type": "string"
        }
      ],
      "name": "supportedDataTypes",
      "outputs": [
        {
          "internalType": "bool",
          "name": "",
          "type": "bool"
        }
      ],
      "stateMutability": "view",
      "type": "function"
    },
    {
      "inputs": [
        {
          "internalType": "string",
          "name": "_hash",
          "type": "string"
        }
      ],
      "name": "validateDataHash",
      "outputs": [
        {
          "internalType": "bool",
          "name": "",
          "type": "bool"
        }
      ],
      "stateMutability": "pure",
      "type": "function"
    }
  ],
  "bytecode": "0x608060405234801561001057600080fd5b506001600060405161002190610176565b908152602001604051809103902060006101000a81548160ff02191690831515021790555060016000604051610056906101d7565b908152602001604051809103902060006101000a81548160ff0219169083151502179055506001600060405161008b90610238565b908152602001604051809103902060006101000a81548160ff021916908315150217905550600160006040516100c090610299565b908152602001604051809103902060006101000a81548160ff021916908315150217905550600160006040516100f5906102fa565b908152602001604051809103902060006101000a81548160ff02191690831515021790555061030f565b600081905092915050565b7f6c61625f726573756c7473000000000000000000000000000000000000000000600082015250565b6000610160600b8361011f565b915061016b8261012a565b600b82019050919050565b600061018182610153565b9150819050919050565b7f7765617261626c655f6461746100000000000000000000000000000000000000600082015250565b60006101c1600d8361011f565b91506101cc8261018b565b600d82019050919050565b60006101e2826101b4565b9150819050919050565b7f7375727665795f64617461000000000000000000000000000000000000000000600082015250565b6000610222600b8361011f565b915061022d826101ec565b600b82019050919050565b600061024382610215565b9150819050919050565b7f696d6167696e675f646174610000000000000000000000000000000000000000600082015250565b6000610283600c8361011f565b915061028e8261024d565b600c82019050919050565b60006102a482610276565b9150819050919050565b7f67656e657469635f646174610000000000000000000000000000000000000000600082015250565b60006102e4600c8361011f565b91506102ef826102ae565b600c82019050919050565b6000610305826102d7565b9150819050919050565b61045a8061031e6000396000f3fe608060405234801561001057600080fd5b506004361061004c5760003560e01c80633289916d1461005157806378c11bfd14610081578063878630101461009d578063ae725105146100cd575b600080fd5b61006b6004803603810190610066919061031d565b6100fd565b6040516100789190610381565b60405180910390f35b61009b6004803603810190610096919061031d565b610131565b005b6100b760048036038101906100b2919061031d565b61016b565b6040516100c49190610381565b60405180910390f35b6100e760048036038101906100e2919061031d565b6101a1565b6040516100f49190610381565b60405180910390f35b6000808260405161010e919061040d565b908152602001604051809103902060009054906101000a900460ff169050919050565b6001600082604051610143919061040d565b908152602001604051809103902060006101000a81548160ff02191690831515021790555050565b6000818051602081018201805184825260208301602085012081835280955050505050506000915054906101000a900460ff1681565b60008082905060208151101580156101bb57506040815111155b915050919050565b6000604051905090565b600080fd5b600080fd5b600080fd5b600080fd5b6000601f19601f8301169050919050565b7f4e487b7100000000000000000000000000000000000000000000000000000000600052604160045260246000fd5b61022a826101e1565b810181811067ffffffffffffffff82111715610249576102486101f2565b5b80604052505050565b600061025c6101c3565b90506102688282610221565b919050565b600067ffffffffffffffff821115610288576102876101f2565b5b610291826101e1565b9050602081019050919050565b82818337600083830152505050565b60006102c06102bb8461026d565b610252565b9050828152602081018484840111156102dc576102db6101dc565b5b6102e784828561029e565b509392505050565b600082601f830112610304576103036101d7565b5b81356103148482602086016102ad565b91505092915050565b600060208284031215610333576103326101cd565b5b600082013567ffffffffffffffff811115610351576103506101d2565b5b61035d848285016102ef565b91505092915050565b60008115159050919050565b61037b81610366565b82525050565b60006020820190506103966000830184610372565b92915050565b600081519050919050565b600081905092915050565b60005b838110156103d05780820151818401526020810190506103b5565b60008484015250505050565b60006103e78261039c565b6103f181856103a7565b93506104018185602086016103b2565b80840191505092915050565b600061041982846103dc565b91508190509291505056fea2646970667358221220b456a7fe0a0c8c96f7404a3dabec36180a4352e5796f3c0771ea47707090a3a664736f6c63430008130033",
  "linkReferences": {},
  "deployedLinkReferences": {}
}